{
  "address": "0xa8dBDa42f882140eF0f1ca48435441dCba635C4a",
  "abi": [
    {
      "inputs": [],
      "stateMutability": "nonpayable",
      "type": "constructor"
    },
    {
      "anonymous": false,
      "inputs": [
        {
          "indexed": true,
          "internalType": "bytes32",
          "name": "pairId",
          "type": "bytes32"
        },
        {
          "indexed": false,
          "internalType": "address",
          "name": "feedAddress",
          "type": "address"
        },
        {
          "indexed": false,
          "internalType": "string",
          "name": "description",
          "type": "string"
        }
      ],
      "name": "PriceFeedRegistered",
      "type": "event"
    },
    {
      "anonymous": false,
      "inputs": [
        {
          "indexed": true,
          "internalType": "bytes32",
          "name": "pairId",
          "type": "bytes32"
        },
        {
          "indexed": false,
          "internalType": "uint256",
          "name": "price",
          "type": "uint256"
        },
        {
          "indexed": false,
          "internalType": "uint256",
          "name": "timestamp",
          "type": "uint256"
        },
        {
          "indexed": false,
          "internalType": "uint80",
          "name": "roundId",
          "type": "uint80"
        }
      ],
      "name": "PriceFetched",
      "type": "event"
    },
    {
      "inputs": [],
      "name": "BTC_USD_FEED",
      "outputs": [
        {
          "internalType": "address",
          "name": "",
          "type": "address"
        }
      ],
      "stateMutability": "view",
      "type": "function"
    },
    {
      "inputs": [],
      "name": "ETH_USD_FEED",
      "outputs": [
        {
          "internalType": "address",
          "name": "",
          "type": "address"
        }
      ],
      "stateMutability": "view",
      "type": "function"
    },
    {
      "inputs": [],
      "name": "LINK_USD_FEED",
      "outputs": [
        {
          "internalType": "address",
          "name": "",
          "type": "address"
        }
      ],
      "stateMutability": "view",
      "type": "function"
    },
    {
      "inputs": [
        {
          "internalType": "bytes32",
          "name": "pairId",
          "type": "bytes32"
        }
      ],
      "name": "getFeedInfo",
      "outputs": [
        {
          "internalType": "address",
          "name": "feedAddress",
          "type": "address"
        },
        {
          "internalType": "uint8",
          "name": "decimals",
          "type": "uint8"
        },
        {
          "internalType": "string",
          "name": "description",
          "type": "string"
        },
        {
          "internalType": "uint256",
          "name": "heartbeat",
          "type": "uint256"
        }
      ],
      "stateMutability": "view",
      "type": "function"
    },
    {
      "inputs": [
        {
          "internalType": "bytes32",
          "name": "pairId",
          "type": "bytes32"
        },
        {
          "internalType": "uint80",
          "name": "roundId",
          "type": "uint80"
        }
      ],
      "name": "getHistoricalPrice",
      "outputs": [
        {
          "internalType": "uint256",
          "name": "price",
          "type": "uint256"
        },
        {
          "internalType": "uint256",
          "name": "timestamp",
          "type": "uint256"
        }
      ],
      "stateMutability": "view",
      "type": "function"
    },
    {
      "inputs": [
        {
          "internalType": "bytes32",
          "name": "pairId",
          "type": "bytes32"
        }
      ],
      "name": "getLatestPrice",
      "outputs": [
        {
          "internalType": "uint256",
          "name": "price",
          "type": "uint256"
        },
        {
          "internalType": "uint256",
          "name": "timestamp",
          "type": "uint256"
        },
        {
          "internalType": "uint80",
          "name": "roundId",
          "type": "uint80"
        }
      ],
      "stateMutability": "view",
      "type": "function"
    },
    {
      "inputs": [
        {
          "internalType": "bytes32",
          "name": "pairId",
          "type": "bytes32"
        }
      ],
      "name": "isFeedRegistered",
      "outputs": [
        {
          "internalType": "bool",
          "name": "",
          "type": "bool"
        }
      ],
      "stateMutability": "view",
      "type": "function"
    },
    {
      "inputs": [
        {
          "internalType": "bytes32",
          "name": "",
          "type": "bytes32"
        }
      ],
      "name": "priceFeeds",
      "outputs": [
        {
          "internalType": "contract AggregatorV3Interface",
          "name": "feed",
          "type": "address"
        },
        {
          "internalType": "uint8",
          "name": "decimals",
          "type": "uint8"
        },
        {
          "internalType": "string",
          "name": "description",
          "type": "string"
        },
        {
          "internalType": "uint256",
          "name": "heartbeat",
          "type": "uint256"
        }
      ],
      "stateMutability": "view",
      "type": "function"
    }
  ],
  "transactionHash": "0x8df359cab86a2fd66b008955646651e27152988e93c187fbf910aad7d0255a66",
  "args": [],
  "numDeployments": 1,
  "solcInputHash": "20e66f7e65a4f172b8ebc2d9e2726c9d",
  "bytecode": "0x60806040523480156200001157600080fd5b50620000877f0b43555ace6b39aae1b894097d0a9fc17f504c62fea598fa206cc6f5088e6e4573694aa1769357215de4fac081bf1f309adc3253066008604051806040016040528060118152602001704554482f55534420436861696e6c696e6b60781b815250610e106200017860201b60201c565b620000fc7fee62665949c883f9e0f6f002eac32e00bd59dfe6c34e92a91c37d6a8322d6489731b44f3514812d835eb1bdb0acb33d3fa3351ee436008604051806040016040528060118152602001704254432f55534420436861696e6c696e6b60781b815250610e106200017860201b60201c565b620001727f062e57bcf79ec1579df888e32a3f07cc899dc60a904a55e6d5b9d83e5bfb756473c59e3633baac79493d908e63626716e204a45edf6008604051806040016040528060128152602001714c494e4b2f55534420436861696e6c696e6b60701b815250610e106200017860201b60201c565b62000413565b604080516080810182526001600160a01b03808716825260ff80871660208085019182528486018881526060860188905260008c815291829052959020845181549251909316600160a01b026001600160a81b0319909216929093169190911717815591519091906001820190620001f19082620002e7565b5060608201518160020155905050847f4ab918bd94f3aae4bb5e788abf7ba5468b3654c8f508a08a273fd581f257a3f4858460405162000233929190620003b3565b60405180910390a25050505050565b634e487b7160e01b600052604160045260246000fd5b600181811c908216806200026d57607f821691505b6020821081036200028e57634e487b7160e01b600052602260045260246000fd5b50919050565b601f821115620002e257600081815260208120601f850160051c81016020861015620002bd5750805b601f850160051c820191505b81811015620002de57828155600101620002c9565b5050505b505050565b81516001600160401b0381111562000303576200030362000242565b6200031b8162000314845462000258565b8462000294565b602080601f8311600181146200035357600084156200033a5750858301515b600019600386901b1c1916600185901b178555620002de565b600085815260208120601f198616915b82811015620003845788860151825594840194600190910190840162000363565b5085821015620003a35787850151600019600388901b60f8161c191681555b5050505050600190811b01905550565b60018060a01b038316815260006020604081840152835180604085015260005b81811015620003f157858101830151858201606001528201620003d3565b506000606082860101526060601f19601f830116850101925050509392505050565b610b9880620004236000396000f3fe608060405234801561001057600080fd5b50600436106100885760003560e01c80638b85bad51161005b5780638b85bad51461012f57806394d8572a1461016a578063b2ee2f0114610185578063c6c3f71e146101bc57600080fd5b8063020068f71461008d578063088ccd6a146100b95780633dc2c7eb146100e15780637e8bf08e14610114575b600080fd5b6100a061009b366004610960565b6101cf565b6040516100b094939291906109bf565b60405180910390f35b6100cc6100c7366004610a15565b6102d5565b604080519283526020830191909152016100b0565b6100fc73c59e3633baac79493d908e63626716e204a45edf81565b6040516001600160a01b0390911681526020016100b0565b6100fc731b44f3514812d835eb1bdb0acb33d3fa3351ee4381565b61015a61013d366004610960565b6000908152602081905260409020546001600160a01b0316151590565b60405190151581526020016100b0565b6100fc73694aa1769357215de4fac081bf1f309adc32530681565b610198610193366004610960565b610559565b6040805193845260208401929092526001600160501b0316908201526060016100b0565b6100a06101ca366004610960565b61089f565b600081815260208181526040808320815160808101835281546001600160a01b0381168252600160a01b900460ff169381019390935260018101805485946060948694859492939092918401919061022690610a45565b80601f016020809104026020016040519081016040528092919081815260200182805461025290610a45565b801561029f5780601f106102745761010080835404028352916020019161029f565b820191906000526020600020905b81548152906001019060200180831161028257829003601f168201915b50505091835250506002919091015460209182015281519082015160408301516060909301519199909850919650945092505050565b600082815260208181526040808320815160808101835281546001600160a01b0381168252600160a01b900460ff1693810193909352600181018054859485949093929084019161032590610a45565b80601f016020809104026020016040519081016040528092919081815260200182805461035190610a45565b801561039e5780601f106103735761010080835404028352916020019161039e565b820191906000526020600020905b81548152906001019060200180831161038157829003601f168201915b50505091835250506002919091015460209091015280519091506001600160a01b03166103e65760405162461bcd60e51b81526004016103dd90610a7f565b60405180910390fd5b8051604051639a6fc8f560e01b81526001600160501b0386166004820152600091829182916001600160a01b031690639a6fc8f59060240160a060405180830381865afa15801561043b573d6000803e3d6000fd5b505050506040513d601f19601f8201168201806040525081019061045f9190610ac4565b9450945050935050600083136104ca5760405162461bcd60e51b815260206004820152602a60248201527f436861696e6c696e6b416461707465723a20496e76616c696420686973746f726044820152696963616c20707269636560b01b60648201526084016103dd565b866001600160501b0316816001600160501b0316146105395760405162461bcd60e51b815260206004820152602560248201527f436861696e6c696e6b416461707465723a20526f756e64206e6f742066696e616044820152641b1a5e995960da1b60648201526084016103dd565b600061054a846402540be400610b32565b99929850919650505050505050565b600081815260208181526040808320815160808101835281546001600160a01b0381168252600160a01b900460ff16938101939093526001810180548594859485949193919290840191906105ad90610a45565b80601f01602080910402602001604051908101604052809291908181526020018280546105d990610a45565b80156106265780601f106105fb57610100808354040283529160200191610626565b820191906000526020600020905b81548152906001019060200180831161060957829003601f168201915b50505091835250506002919091015460209091015280519091506001600160a01b03166106655760405162461bcd60e51b81526004016103dd90610a7f565b60008060008084600001516001600160a01b031663feaf968c6040518163ffffffff1660e01b815260040160a060405180830381865afa1580156106ad573d6000803e3d6000fd5b505050506040513d601f19601f820116820180604052508101906106d19190610ac4565b945094505093509350600083136107415760405162461bcd60e51b815260206004820152602e60248201527f436861696e6c696e6b416461707465723a20496e76616c69642070726963652060448201526d286e6f6e2d706f7369746976652960901b60648201526084016103dd565b6000821161079d5760405162461bcd60e51b815260206004820152602360248201527f436861696e6c696e6b416461707465723a20496e76616c69642074696d6573746044820152620616d760ec1b60648201526084016103dd565b836001600160501b0316816001600160501b031610156108165760405162461bcd60e51b815260206004820152602e60248201527f436861696e6c696e6b416461707465723a205374616c6520707269636520287260448201526d6f756e64206d69736d617463682960901b60648201526084016103dd565b60608501516108258342610b4f565b111561087d5760405162461bcd60e51b815260206004820152602160248201527f436861696e6c696e6b416461707465723a20507269636520746f6f207374616c6044820152606560f81b60648201526084016103dd565b600061088e846402540be400610b32565b9a9299509397509095505050505050565b600060208190529081526040902080546001820180546001600160a01b03831693600160a01b90930460ff169291906108d790610a45565b80601f016020809104026020016040519081016040528092919081815260200182805461090390610a45565b80156109505780601f1061092557610100808354040283529160200191610950565b820191906000526020600020905b81548152906001019060200180831161093357829003601f168201915b5050505050908060020154905084565b60006020828403121561097257600080fd5b5035919050565b6000815180845260005b8181101561099f57602081850181015186830182015201610983565b506000602082860101526020601f19601f83011685010191505092915050565b6001600160a01b038516815260ff841660208201526080604082018190526000906109ec90830185610979565b905082606083015295945050505050565b6001600160501b0381168114610a1257600080fd5b50565b60008060408385031215610a2857600080fd5b823591506020830135610a3a816109fd565b809150509250929050565b600181811c90821680610a5957607f821691505b602082108103610a7957634e487b7160e01b600052602260045260246000fd5b50919050565b60208082526025908201527f436861696e6c696e6b416461707465723a2046656564206e6f742072656769736040820152641d195c995960da1b606082015260800190565b600080600080600060a08688031215610adc57600080fd5b8551610ae7816109fd565b809550506020860151935060408601519250606086015191506080860151610b0e816109fd565b809150509295509295909350565b634e487b7160e01b600052601160045260246000fd5b8082028115828204841417610b4957610b49610b1c565b92915050565b81810381811115610b4957610b49610b1c56fea26469706673582212200595be381a9ac1b705f5c893155d148e133245ed39108b4d5c4c32fedcce0b6364736f6c63430008140033",
  "devdoc": {
    "details": "Official Sepolia testnet addresses from https://docs.chain.link/data-feeds/price-feeds/addresses",
    "kind": "dev",
    "methods": {
      "getFeedInfo(bytes32)": {
        "params": {
          "pairId": "Asset pair to query"
        },
        "returns": {
          "decimals": "Feed decimals",
          "description": "Feed description",
          "feedAddress": "Chainlink aggregator address",
          "heartbeat": "Max staleness in seconds"
        }
      },
      "getHistoricalPrice(bytes32,uint80)": {
        "details": "Used for dispute resolution (verify historical claim)",
        "params": {
          "pairId": "Asset pair identifier",
          "roundId": "Historical round ID to query"
        },
        "returns": {
          "price": "Historical price (normalized to 18 decimals)",
          "timestamp": "When that round was finalized"
        }
      },
      "getLatestPrice(bytes32)": {
        "params": {
          "pairId": "Asset pair identifier (e.g., keccak256(\"ETH/USD\"))"
        },
        "returns": {
          "price": "Latest price (normalized to 18 decimals)",
          "roundId": "Chainlink round ID for verification",
          "timestamp": "When price was last updated"
        }
      },
      "isFeedRegistered(bytes32)": {
        "params": {
          "pairId": "Asset pair to check"
        },
        "returns": {
          "_0": "True if feed exists"
        }
      }
    },
    "title": "ChainlinkOracleAdapter",
    "version": 1
  },
  "userdoc": {
    "kind": "user",
    "methods": {
      "getFeedInfo(bytes32)": {
        "notice": "Get feed information"
      },
      "getHistoricalPrice(bytes32,uint80)": {
        "notice": "Get price from specific historical round"
      },
      "getLatestPrice(bytes32)": {
        "notice": "Fetch latest price from Chainlink"
      },
      "isFeedRegistered(bytes32)": {
        "notice": "Check if a feed is registered"
      }
    },
    "notice": "Fetches price data from Chainlink decentralized oracle network",
    "version": 1
  },
  "storageLayout": {
    "storage": [
      {
        "astId": 9728,
        "contract": "contracts/oracles/ChainlinkOracleAdapter.sol:ChainlinkOracleAdapter",
        "label": "priceFeeds",
        "offset": 0,
        "slot": "0",
        "type": "t_mapping(t_bytes32,t_struct(PriceFeed)9723_storage)"
      }
    ],
    "types": {
      "t_bytes32": {
        "encoding": "inplace",
        "label": "bytes32",
        "numberOfBytes": "32"
      },
      "t_contract(AggregatorV3Interface)45": {
        "encoding": "inplace",
        "label": "contract AggregatorV3Interface",
        "numberOfBytes": "20"
      },
      "t_mapping(t_bytes32,t_struct(PriceFeed)9723_storage)": {
        "encoding": "mapping",
        "key": "t_bytes32",
        "label": "mapping(bytes32 => struct ChainlinkOracleAdapter.PriceFeed)",
        "numberOfBytes": "32",
        "value": "t_struct(PriceFeed)9723_storage"
      },
      "t_string_storage": {
        "encoding": "bytes",
        "label": "string",
        "numberOfBytes": "32"
      },
      "t_struct(PriceFeed)9723_storage": {
        "encoding": "inplace",
        "label": "struct ChainlinkOracleAdapter.PriceFeed",
        "members": [
          {
            "astId": 9716,
            "contract": "contracts/oracles/ChainlinkOracleAdapter.sol:ChainlinkOracleAdapter",
            "label": "feed",
            "offset": 0,
            "slot": "0",
            "type": "t_contract(AggregatorV3Interface)45"
          },
          {
            "astId": 9718,
            "contract": "contracts/oracles/ChainlinkOracleAdapter.sol:ChainlinkOracleAdapter",
            "label": "decimals",
            "offset": 20,
            "slot": "0",
            "type": "t_uint8"
          },
          {
            "astId": 9720,
            "contract": "contracts/oracles/ChainlinkOracleAdapter.sol:ChainlinkOracleAdapter",
            "label": "description",
            "offset": 0,
            "slot": "1",
            "type": "t_string_storage"
          },
          {
            "astId": 9722,
            "contract": "contracts/oracles/ChainlinkOracleAdapter.sol:ChainlinkOracleAdapter",
            "label": "heartbeat",
            "offset": 0,
            "slot": "2",
            "type": "t_uint256"
          }
        ],
        "numberOfBytes": "96"
      },
      "t_uint256": {
        "encoding": "inplace",
        "label": "uint256",
        "numberOfBytes": "32"
      },
      "t_uint8": {
        "encoding": "inplace",
        "label": "uint8",
        "numberOfBytes": "1"
      }
    }
  }
}