{
  "address": "0x03ECDCdC5f558494B126Eee6F195FAA772706EFB",
  "abi": [
    {
      "inputs": [],
      "stateMutability": "nonpayable",
      "type": "constructor"
    },
    {
      "anonymous": false,
      "inputs": [
        {
          "indexed": true,
          "internalType": "uint256",
          "name": "epochId",
          "type": "uint256"
        },
        {
          "indexed": true,
          "internalType": "address",
          "name": "trader",
          "type": "address"
        },
        {
          "indexed": false,
          "internalType": "uint256",
          "name": "amount",
          "type": "uint256"
        }
      ],
      "name": "BondSlashed",
      "type": "event"
    },
    {
      "anonymous": false,
      "inputs": [
        {
          "indexed": true,
          "internalType": "uint256",
          "name": "epochId",
          "type": "uint256"
        },
        {
          "indexed": false,
          "internalType": "string",
          "name": "reason",
          "type": "string"
        }
      ],
      "name": "EmergencyTriggered",
      "type": "event"
    },
    {
      "anonymous": false,
      "inputs": [
        {
          "indexed": true,
          "internalType": "uint256",
          "name": "epochId",
          "type": "uint256"
        },
        {
          "indexed": false,
          "internalType": "uint256",
          "name": "startBlock",
          "type": "uint256"
        },
        {
          "indexed": false,
          "internalType": "uint256",
          "name": "commitEnd",
          "type": "uint256"
        },
        {
          "indexed": false,
          "internalType": "uint256",
          "name": "revealEnd",
          "type": "uint256"
        }
      ],
      "name": "EpochInitialized",
      "type": "event"
    },
    {
      "anonymous": false,
      "inputs": [
        {
          "indexed": true,
          "internalType": "uint256",
          "name": "epochId",
          "type": "uint256"
        },
        {
          "indexed": false,
          "internalType": "uint256",
          "name": "clearingPrice",
          "type": "uint256"
        },
        {
          "indexed": false,
          "internalType": "uint256",
          "name": "matchedVolume",
          "type": "uint256"
        }
      ],
      "name": "EpochSettled",
      "type": "event"
    },
    {
      "anonymous": false,
      "inputs": [
        {
          "indexed": true,
          "internalType": "uint256",
          "name": "epochId",
          "type": "uint256"
        },
        {
          "indexed": false,
          "internalType": "uint256",
          "name": "startBlock",
          "type": "uint256"
        },
        {
          "indexed": false,
          "internalType": "uint256",
          "name": "commitEndBlock",
          "type": "uint256"
        }
      ],
      "name": "EpochStarted",
      "type": "event"
    },
    {
      "anonymous": false,
      "inputs": [
        {
          "indexed": true,
          "internalType": "uint256",
          "name": "epochId",
          "type": "uint256"
        },
        {
          "indexed": false,
          "internalType": "string",
          "name": "reason",
          "type": "string"
        }
      ],
      "name": "EpochVoided",
      "type": "event"
    },
    {
      "anonymous": false,
      "inputs": [
        {
          "indexed": false,
          "internalType": "string",
          "name": "invariantName",
          "type": "string"
        },
        {
          "indexed": false,
          "internalType": "bool",
          "name": "passed",
          "type": "bool"
        }
      ],
      "name": "InvariantChecked",
      "type": "event"
    },
    {
      "anonymous": false,
      "inputs": [
        {
          "indexed": true,
          "internalType": "uint256",
          "name": "epochId",
          "type": "uint256"
        },
        {
          "indexed": true,
          "internalType": "address",
          "name": "trader",
          "type": "address"
        },
        {
          "indexed": false,
          "internalType": "bytes32",
          "name": "commitmentHash",
          "type": "bytes32"
        }
      ],
      "name": "OrderCommitted",
      "type": "event"
    },
    {
      "anonymous": false,
      "inputs": [
        {
          "indexed": true,
          "internalType": "uint256",
          "name": "epochId",
          "type": "uint256"
        },
        {
          "indexed": true,
          "internalType": "address",
          "name": "trader",
          "type": "address"
        },
        {
          "indexed": false,
          "internalType": "uint256",
          "name": "amount",
          "type": "uint256"
        },
        {
          "indexed": false,
          "internalType": "enum OrderSide",
          "name": "side",
          "type": "uint8"
        }
      ],
      "name": "OrderRevealed",
      "type": "event"
    },
    {
      "anonymous": false,
      "inputs": [
        {
          "indexed": true,
          "internalType": "uint256",
          "name": "epochId",
          "type": "uint256"
        },
        {
          "indexed": false,
          "internalType": "enum EpochPhase",
          "name": "fromPhase",
          "type": "uint8"
        },
        {
          "indexed": false,
          "internalType": "enum EpochPhase",
          "name": "toPhase",
          "type": "uint8"
        },
        {
          "indexed": false,
          "internalType": "uint256",
          "name": "blockNumber",
          "type": "uint256"
        }
      ],
      "name": "PhaseTransition",
      "type": "event"
    },
    {
      "anonymous": false,
      "inputs": [
        {
          "indexed": true,
          "internalType": "uint256",
          "name": "epochId",
          "type": "uint256"
        },
        {
          "indexed": true,
          "internalType": "address",
          "name": "trader",
          "type": "address"
        },
        {
          "indexed": false,
          "internalType": "uint256",
          "name": "tokensReceived",
          "type": "uint256"
        }
      ],
      "name": "SettlementClaimed",
      "type": "event"
    },
    {
      "anonymous": false,
      "inputs": [
        {
          "indexed": true,
          "internalType": "uint256",
          "name": "epochId",
          "type": "uint256"
        },
        {
          "indexed": true,
          "internalType": "address",
          "name": "disputer",
          "type": "address"
        }
      ],
      "name": "SettlementDisputed",
      "type": "event"
    },
    {
      "inputs": [
        {
          "internalType": "uint256",
          "name": "epochId",
          "type": "uint256"
        }
      ],
      "name": "claimSettlement",
      "outputs": [],
      "stateMutability": "nonpayable",
      "type": "function"
    },
    {
      "inputs": [
        {
          "internalType": "bytes32",
          "name": "commitmentHash",
          "type": "bytes32"
        }
      ],
      "name": "commitOrder",
      "outputs": [],
      "stateMutability": "payable",
      "type": "function"
    },
    {
      "inputs": [],
      "name": "forceAdvanceEpoch",
      "outputs": [],
      "stateMutability": "nonpayable",
      "type": "function"
    },
    {
      "inputs": [],
      "name": "getBlocksRemaining",
      "outputs": [
        {
          "internalType": "uint256",
          "name": "blocks",
          "type": "uint256"
        }
      ],
      "stateMutability": "view",
      "type": "function"
    },
    {
      "inputs": [],
      "name": "getCalculatedPhase",
      "outputs": [
        {
          "internalType": "enum EpochPhase",
          "name": "",
          "type": "uint8"
        }
      ],
      "stateMutability": "view",
      "type": "function"
    },
    {
      "inputs": [
        {
          "internalType": "uint256",
          "name": "epochId",
          "type": "uint256"
        },
        {
          "internalType": "address",
          "name": "trader",
          "type": "address"
        }
      ],
      "name": "getCommitment",
      "outputs": [
        {
          "components": [
            {
              "internalType": "bytes32",
              "name": "hash",
              "type": "bytes32"
            },
            {
              "internalType": "uint40",
              "name": "commitBlock",
              "type": "uint40"
            },
            {
              "internalType": "uint96",
              "name": "bondAmount",
              "type": "uint96"
            },
            {
              "internalType": "bool",
              "name": "revealed",
              "type": "bool"
            },
            {
              "internalType": "bool",
              "name": "slashed",
              "type": "bool"
            }
          ],
          "internalType": "struct Commitment",
          "name": "",
          "type": "tuple"
        }
      ],
      "stateMutability": "view",
      "type": "function"
    },
    {
      "inputs": [],
      "name": "getConfig",
      "outputs": [
        {
          "components": [
            {
              "internalType": "uint256",
              "name": "commitDuration",
              "type": "uint256"
            },
            {
              "internalType": "uint256",
              "name": "revealDuration",
              "type": "uint256"
            },
            {
              "internalType": "uint256",
              "name": "safetyBufferDuration",
              "type": "uint256"
            },
            {
              "internalType": "uint256",
              "name": "minCommitBond",
              "type": "uint256"
            },
            {
              "internalType": "uint256",
              "name": "settlementFeeRate",
              "type": "uint256"
            },
            {
              "internalType": "uint256",
              "name": "disputeBondMultiplier",
              "type": "uint256"
            },
            {
              "internalType": "uint256",
              "name": "assertionWindow",
              "type": "uint256"
            },
            {
              "internalType": "uint256",
              "name": "disputeWindow",
              "type": "uint256"
            },
            {
              "internalType": "uint256",
              "name": "maxEpochDuration",
              "type": "uint256"
            }
          ],
          "internalType": "struct LibClearStorage.ProtocolConfig",
          "name": "",
          "type": "tuple"
        }
      ],
      "stateMutability": "view",
      "type": "function"
    },
    {
      "inputs": [],
      "name": "getCurrentEpoch",
      "outputs": [
        {
          "internalType": "uint256",
          "name": "",
          "type": "uint256"
        }
      ],
      "stateMutability": "view",
      "type": "function"
    },
    {
      "inputs": [],
      "name": "getCurrentEpochId",
      "outputs": [
        {
          "internalType": "uint256",
          "name": "",
          "type": "uint256"
        }
      ],
      "stateMutability": "view",
      "type": "function"
    },
    {
      "inputs": [],
      "name": "getCurrentPhase",
      "outputs": [
        {
          "internalType": "enum EpochPhase",
          "name": "",
          "type": "uint8"
        }
      ],
      "stateMutability": "view",
      "type": "function"
    },
    {
      "inputs": [
        {
          "internalType": "uint256",
          "name": "epochId",
          "type": "uint256"
        }
      ],
      "name": "getEpochData",
      "outputs": [
        {
          "components": [
            {
              "internalType": "uint256",
              "name": "epochId",
              "type": "uint256"
            },
            {
              "internalType": "enum EpochPhase",
              "name": "phase",
              "type": "uint8"
            },
            {
              "internalType": "uint256",
              "name": "startBlock",
              "type": "uint256"
            },
            {
              "internalType": "uint256",
              "name": "commitEndBlock",
              "type": "uint256"
            },
            {
              "internalType": "uint256",
              "name": "revealEndBlock",
              "type": "uint256"
            },
            {
              "internalType": "uint256",
              "name": "settleBlock",
              "type": "uint256"
            },
            {
              "internalType": "uint256",
              "name": "safetyEndBlock",
              "type": "uint256"
            },
            {
              "internalType": "uint256",
              "name": "clearingPrice",
              "type": "uint256"
            },
            {
              "internalType": "uint256",
              "name": "totalBuyVolume",
              "type": "uint256"
            },
            {
              "internalType": "uint256",
              "name": "totalSellVolume",
              "type": "uint256"
            },
            {
              "internalType": "uint256",
              "name": "matchedVolume",
              "type": "uint256"
            },
            {
              "internalType": "bool",
              "name": "disputed",
              "type": "bool"
            }
          ],
          "internalType": "struct EpochData",
          "name": "",
          "type": "tuple"
        }
      ],
      "stateMutability": "view",
      "type": "function"
    },
    {
      "inputs": [
        {
          "internalType": "uint256",
          "name": "epochId",
          "type": "uint256"
        },
        {
          "internalType": "address",
          "name": "trader",
          "type": "address"
        }
      ],
      "name": "getSettlementResult",
      "outputs": [
        {
          "components": [
            {
              "internalType": "uint256",
              "name": "tokensReceived",
              "type": "uint256"
            },
            {
              "internalType": "uint256",
              "name": "tokensPaid",
              "type": "uint256"
            },
            {
              "internalType": "uint256",
              "name": "bondReturned",
              "type": "uint256"
            },
            {
              "internalType": "bool",
              "name": "claimed",
              "type": "bool"
            }
          ],
          "internalType": "struct SettlementResult",
          "name": "",
          "type": "tuple"
        }
      ],
      "stateMutability": "view",
      "type": "function"
    },
    {
      "inputs": [],
      "name": "getStats",
      "outputs": [
        {
          "internalType": "uint256",
          "name": "totalDeposits",
          "type": "uint256"
        },
        {
          "internalType": "uint256",
          "name": "totalWithdrawals",
          "type": "uint256"
        },
        {
          "internalType": "uint256",
          "name": "treasuryBalance",
          "type": "uint256"
        },
        {
          "internalType": "bool",
          "name": "emergencyMode",
          "type": "bool"
        }
      ],
      "stateMutability": "view",
      "type": "function"
    },
    {
      "inputs": [],
      "name": "resetForDemo",
      "outputs": [],
      "stateMutability": "nonpayable",
      "type": "function"
    },
    {
      "inputs": [
        {
          "internalType": "uint256",
          "name": "amount",
          "type": "uint256"
        },
        {
          "internalType": "enum OrderSide",
          "name": "side",
          "type": "uint8"
        },
        {
          "internalType": "uint256",
          "name": "limitPrice",
          "type": "uint256"
        },
        {
          "internalType": "bytes32",
          "name": "salt",
          "type": "bytes32"
        }
      ],
      "name": "revealOrder",
      "outputs": [],
      "stateMutability": "nonpayable",
      "type": "function"
    },
    {
      "inputs": [],
      "name": "settleEpoch",
      "outputs": [],
      "stateMutability": "nonpayable",
      "type": "function"
    },
    {
      "stateMutability": "payable",
      "type": "receive"
    }
  ],
  "transactionHash": "0x68387e8cc9066c46d146504e692239e609f82fd17749570fe80a6bdee49b03aa",
  "args": [],
  "numDeployments": 1,
  "solcInputHash": "5860d3732fb1d6c8876e4fe833bb6941",
  "bytecode": "0x60806040523480156200001157600080fd5b506200001c62000022565b62000248565b60006200002e620000e6565b9050620000d9816040805161012081018252603c80825260208201819052600a928201839052662386f26fc1000060608301819052601e60808401819052600260a08501819052600560c0860181905260e0860187905260646101009096018690526007880185905560088801949094556009870186905586860192909255600b860155600c850155600d840155600e830191909155600f8201556001601682018190556000910155565b620000e3620000f7565b50565b6000620000f2620001d0565b905090565b600062000103620000e6565b90506000816001015460016200011a91906200021c565b6001830181905560008181526020849052604090208181554360028201819055600785015492935090916200014f916200021c565b60038201819055600884015462000166916200021c565b600482018190556001808301805460ff191690911790556002820154600383015460408051928352602083019190915281019190915282907fcd56168d284b959dad27014c49c6fe459266771c5abb1ccfa47d51e1f40283629060600160405180910390a2505050565b6000806200020060017f7308e339849ce42c33ff59148fa39303b2e41163126f67fdefa3a114806df76162000232565b92915050565b634e487b7160e01b600052601160045260246000fd5b8082018082111562000200576200020062000206565b8181038181111562000200576200020062000206565b612d7b80620002586000396000f3fe6080604052600436106100f75760003560e01c8063b519fc1f1161008a578063c59d484711610059578063c59d484714610336578063ed6e04dd1461036d578063f072a0821461038d578063f6b381e9146103e257600080fd5b8063b519fc1f14610275578063b6b385f71461028a578063b97dd9e21461029f578063c3f909d4146102b457600080fd5b8063859e7d32116100c6578063859e7d321461019b57806389fb2682146101c8578063a29a839f1461023e578063a3a40ea51461025357600080fd5b806347f89b41146101295780637941a0621461013e5780637b4d9405146101665780637df315811461018657600080fd5b366101245760006101066103f7565b90503481601001600082825461011c919061280e565b925050819055005b600080fd5b61013c610137366004612821565b610406565b005b34801561014a57600080fd5b50610153610725565b6040519081526020015b60405180910390f35b34801561017257600080fd5b5061013c610181366004612821565b610812565b34801561019257600080fd5b5061013c610af7565b3480156101a757600080fd5b506101bb6101b6366004612821565b610b79565b60405161015d9190612864565b3480156101d457600080fd5b506101e86101e33660046128fd565b610cb2565b60405161015d9190600060a0820190508251825264ffffffffff60208401511660208301526001600160601b03604084015116604083015260608301511515606083015260808301511515608083015292915050565b34801561024a57600080fd5b50610153610d6f565b34801561025f57600080fd5b50610268610d84565b60405161015d9190612939565b34801561028157600080fd5b5061013c610db0565b34801561029657600080fd5b5061013c610df9565b3480156102ab57600080fd5b50610153610fc9565b3480156102c057600080fd5b506102c9610fd3565b60405161015d9190600061012082019050825182526020830151602083015260408301516040830152606083015160608301526080830151608083015260a083015160a083015260c083015160c083015260e083015160e083015261010080840151818401525092915050565b34801561034257600080fd5b5061034b611098565b604080519485526020850193909352918301521515606082015260800161015d565b34801561037957600080fd5b5061013c610388366004612947565b6110cf565b34801561039957600080fd5b506103ad6103a83660046128fd565b611578565b60405161015d919081518152602080830151908201526040808301519082015260609182015115159181019190915260800190565b3480156103ee57600080fd5b5061026861160d565b6000610401611755565b905090565b60006104106103f7565b9050806016015460011461043f5760405162461bcd60e51b815260040161043690612988565b60405180910390fd5b6002601682015560006104506103f7565b601481015490915060ff16156104785760405162461bcd60e51b8152600401610436906129bf565b610480611783565b600061048a6103f7565b6001808201546000908152602083905260409020919250600182015460ff1660078111156104ba576104ba61283a565b146105075760405162461bcd60e51b815260206004820152601d60248201527f436c656172536574746c653a204e6f7420636f6d6d69742070686173650000006044820152606401610436565b600a82015434101561055b5760405162461bcd60e51b815260206004820152601e60248201527f436c656172536574746c653a20496e73756666696369656e7420626f6e6400006044820152606401610436565b60018201546000908152600283016020908152604080832033845290915290208054156105ca5760405162461bcd60e51b815260206004820152601e60248201527f436c656172536574746c653a20416c726561647920636f6d6d697474656400006044820152606401610436565b6040805160a08101825287815264ffffffffff43811660208084019182526001600160601b033481168587019081526000606087018181526080880182815260018d81018054855260028f0188528b8520338087529089528c86209b518c5598519a820180549651945193511515600160901b0260ff60901b19941515600160881b029490941661ffff60881b1995909816600160281b0270ffffffffffffffffffffffffffffffffff199097169b909a169a909a179490941791909116939093179290921790945593548452600488018152938320805492830181558352929091200180546001600160a01b0319169091179055348360100160008282546106d3919061280e565b909155505060018301546040518781523391907feea783a64b60fddb7f0abb2f39bd68b9c202c9d5fb47c7cfb7b70e392b28766d9060200160405180910390a350505050600181601601819055505050565b6000806107306103f7565b60018082015460009081526020839052604090209192504390600183015460ff1660078111156107625761076261283a565b0361079057816003015481101561078b578082600301546107839190612a01565b935050505090565b610808565b6002600183015460ff1660078111156107ab576107ab61283a565b036107cc57816004015481101561078b578082600401546107839190612a01565b6005600183015460ff1660078111156107e7576107e761283a565b03610808578160060154811015610808578082600601546107839190612a01565b6000935050505090565b600061081c6103f7565b905080601601546001146108425760405162461bcd60e51b815260040161043690612988565b6002601682015560006108536103f7565b601481015490915060ff161561087b5760405162461bcd60e51b8152600401610436906129bf565b610883611783565b600061088d6103f7565b60008581526020829052604090209091506006600182015460ff1660078111156108b9576108b961283a565b146109065760405162461bcd60e51b815260206004820181905260248201527f436c656172536574746c653a2045706f6368206e6f742066696e616c697a65646044820152606401610436565b600085815260058301602090815260408083203384529091529020600381015460ff16156109765760405162461bcd60e51b815260206004820152601c60248201527f436c656172536574746c653a20416c726561647920636c61696d6564000000006044820152606401610436565b8054151580610989575060008160020154115b6109d55760405162461bcd60e51b815260206004820152601d60248201527f436c656172536574746c653a204e6f7468696e6720746f20636c61696d0000006044820152606401610436565b60038101805460ff19166001179055600281015481546000916109f79161280e565b905080846011016000828254610a0d919061280e565b9091555050604051600090339083908381818185875af1925050503d8060008114610a54576040519150601f19603f3d011682016040523d82523d6000602084013e610a59565b606091505b5050905080610aaa5760405162461bcd60e51b815260206004820152601c60248201527f436c656172536574746c653a205472616e73666572206661696c6564000000006044820152606401610436565b8254604051908152339089907f9fe9e386833d3473a891bac121fbf77ebadfd0bc6a239ae89e6de907cc1709c49060200160405180910390a3505050505050600181601601819055505050565b6000610b016103f7565b90508060160154600114610b275760405162461bcd60e51b815260040161043690612988565b600260168201556000610b386103f7565b60148101805460ff191690556040805160208101909152600081529091506015820190610b659082612ab2565b50610b6e6118fb565b506001601690910155565b610be06040805161018081019091526000808252602082019081526020016000815260200160008152602001600081526020016000815260200160008152602001600081526020016000815260200160008152602001600081526020016000151581525090565b6000610bea6103f7565b600084815260208281526040918290208251610180810190935280548352600181015493945091929083019060ff166007811115610c2a57610c2a61283a565b6007811115610c3b57610c3b61283a565b815260028201546020820152600382015460408201526004820154606082015260058201546080820152600682015460a0820152600782015460c0820152600882015460e08201526009820154610100820152600a820154610120820152600b9091015460ff161515610140909101529392505050565b6040805160a081018252600080825260208201819052918101829052606081018290526080810182905290610ce56103f7565b60008581526002909101602090815260408083206001600160a01b0387168452825291829020825160a0810184528154815260019091015464ffffffffff8116928201929092526001600160601b03600160281b8304169281019290925260ff600160881b8204811615156060840152600160901b90910416151560808201529150505b92915050565b600080610d7a6103f7565b6001015492915050565b600080610d8f6103f7565b60018082015460009081526020929092526040909120015460ff1692915050565b6000610dba6103f7565b90508060160154600114610de05760405162461bcd60e51b815260040161043690612988565b60026016820155610def6119cd565b6001601690910155565b6000610e036103f7565b90508060160154600114610e295760405162461bcd60e51b815260040161043690612988565b600260168201556000610e3a6103f7565b601481015490915060ff1615610e625760405162461bcd60e51b8152600401610436906129bf565b610e6a611783565b6000610e746103f7565b600181015460009081526020829052604090209091506003600182015460ff166007811115610ea557610ea561283a565b14610ef25760405162461bcd60e51b815260206004820152601d60248201527f436c656172536574746c653a204e6f7420736574746c652070686173650000006044820152606401610436565b610efa611a82565b610f078160036004611c2a565b610f148260010154611d6c565b6000610f238360010154611ec9565b90508082600701819055506000610f3e846001015483611f21565b600a840181905543600585018190556009860154919250610f5f919061280e565b6006840155610f6c6122c3565b610f798360046005611c2a565b600184015460408051848152602081018490527fe6dfe5a4e48226c4ece8d7eb3d8e0b37cd466ccb8e8b30ac5f4cfd81b928f07b910160405180910390a250505050506001816016018190555050565b6000610401610d6f565b6110226040518061012001604052806000815260200160008152602001600081526020016000815260200160008152602001600081526020016000815260200160008152602001600081525090565b600061102c6103f7565b60408051610120810182526007830154815260088301546020820152600983015491810191909152600a8201546060820152600b8201546080820152600c82015460a0820152600d82015460c0820152600e82015460e0820152600f9091015461010082015292915050565b60008060008060006110a86103f7565b601081015460118201546012830154601490930154919890975091955060ff169350915050565b60006110d96103f7565b905080601601546001146110ff5760405162461bcd60e51b815260040161043690612988565b6002601682015560006111106103f7565b601481015490915060ff16156111385760405162461bcd60e51b8152600401610436906129bf565b611140611783565b600061114a6103f7565b600181015460009081526020829052604090209091506002600182015460ff16600781111561117b5761117b61283a565b146111c85760405162461bcd60e51b815260206004820152601d60248201527f436c656172536574746c653a204e6f742072657665616c2070686173650000006044820152606401610436565b600182015460009081526002830160209081526040808320338452909152902080546112365760405162461bcd60e51b815260206004820181905260248201527f436c656172536574746c653a204e6f20636f6d6d69746d656e7420666f756e646044820152606401610436565b6001810154600160881b900460ff16156112925760405162461bcd60e51b815260206004820152601d60248201527f436c656172536574746c653a20416c72656164792072657665616c65640000006044820152606401610436565b600089898989336040516020016112ad959493929190612b72565b604051602081830303815290604052805190602001209050816000015481146113185760405162461bcd60e51b815260206004820152601a60248201527f436c656172536574746c653a2048617368206d69736d617463680000000000006044820152606401610436565b6001828101805460ff60881b1916600160881b1790556040805160a081018252338152602081018d905291908201908b908111156113585761135861283a565b815260208082018b9052600060409283018190526001888101548252600389018352838220338352835290839020845181546001600160a01b0319166001600160a01b0390911617815591840151828201559183015160028201805492939192909160ff199091169083818111156113d2576113d261283a565b0217905550606082015160038201556080909101516004909101805460ff1916911515919091179055600089600181111561140f5761140f61283a565b036114335789836008016000828254611428919061280e565b9091555061144d9050565b89836009016000828254611447919061280e565b90915550505b6001820154601185018054600160281b9092046001600160601b03169182919060009061147b90849061280e565b9091555050604051600090339083908381818185875af1925050503d80600081146114c2576040519150601f19603f3d011682016040523d82523d6000602084013e6114c7565b606091505b50509050806115185760405162461bcd60e51b815260206004820152601f60248201527f436c656172536574746c653a20426f6e642072657475726e206661696c6564006044820152606401610436565b336001600160a01b031686600101547f25cd011de5e4c972412b3e824649cfce193f53ca5a5a13ed71b7d929b82150958e8e604051611558929190612bbf565b60405180910390a350505050505050600181601601819055505050505050565b6115a560405180608001604052806000815260200160008152602001600081526020016000151581525090565b60006115af6103f7565b6000948552600501602090815260408086206001600160a01b039590951686529381529383902083516080810185528154815260018201549581019590955260028101549385019390935250506003015460ff161515606082015290565b6000806116186103f7565b60018101546000908152602082905260408120919250600182015460ff1660078111156116475761164761283a565b148061166b57506006600182015460ff1660078111156116695761166961283a565b145b8061168e57506007600182015460ff16600781111561168c5761168c61283a565b145b156116a0576001015460ff1692915050565b4360018083015460ff1660078111156116bb576116bb61283a565b036116db5781600301548111156116d6576002935050505090565b611747565b6002600183015460ff1660078111156116f6576116f661283a565b036117115781600401548111156116d6576003935050505090565b6005600183015460ff16600781111561172c5761172c61283a565b03611747578160060154811115611747576006935050505090565b506001015460ff1692915050565b600080610d6960017f7308e339849ce42c33ff59148fa39303b2e41163126f67fdefa3a114806df761612a01565b600061178d6103f7565b60018101546000908152602082905260408120919250600182015460ff1660078111156117bc576117bc61283a565b14806117e057506006600182015460ff1660078111156117de576117de61283a565b145b8061180357506007600182015460ff1660078111156118015761180161283a565b145b1561180c575050565b600180820154439160ff90911690819082600781111561182e5761182e61283a565b03611848578360030154831115611843575060025b6118b7565b600282600781111561185c5761185c61283a565b03611875578360040154831115611843575060036118b7565b60038260078111156118895761188961283a565b146118b75760058260078111156118a2576118a261283a565b036118b75783600601548311156118b7575060065b8160078111156118c9576118c961283a565b8160078111156118db576118db61283a565b146118eb576118eb848383611c2a565b6118f48461231f565b5050505050565b60006119056103f7565b905060008160010154600161191a919061280e565b60018301819055600081815260208490526040902081815543600282018190556007850154929350909161194d9161280e565b6003820181905560088401546119629161280e565b600482018190556001808301805460ff191690911790556002820154600383015460408051928352602083019190915281019190915282907fcd56168d284b959dad27014c49c6fe459266771c5abb1ccfa47d51e1f4028362906060015b60405180910390a2505050565b60006119d76103f7565b600181015460009081526020829052604081206002810154929350916119fd9043612a01565b600f8401549091508111611a535760405162461bcd60e51b815260206004820152601c60248201527f436c656172536574746c653a2045706f6368206e6f7420737475636b000000006044820152606401610436565b611a75826040518060600160405280602a8152602001612d1c602a91396123a8565b611a7d6118fb565b505050565b6000611a8c6103f7565b9050600081601101548260100154611aa49190612a01565b905047811115611b015760405162461bcd60e51b815260206004820152602260248201527f436c656172536574746c653a20536f6c76656e637920636865636b206661696c604482015261195960f21b6064820152608401610436565b60018083015460009081526020848152604091829020825161018081019093528054835292830154611bce929184919083019060ff166007811115611b4857611b4861283a565b6007811115611b5957611b5961283a565b815260028201546020820152600382015460408201526004820154606082015260058201546080820152600682015460a0820152600782015460c0820152600882015460e08201526009820154610100820152600a820154610120820152600b9091015460ff16151561014090910152612416565b611a7d5760405162461bcd60e51b815260206004820152602760248201527f436c656172536574746c653a2054696d65206d6f6e6f746f6e696369747920766044820152661a5bdb185d195960ca1b6064820152608401610436565b611c3482826124ba565b60018084018054839260ff1990911690836007811115611c5657611c5661283a565b02179055506003816007811115611c6f57611c6f61283a565b03611c7b574360058401555b604080516101808101909152835481526001840154611d3691908590602083019060ff166007811115611cb057611cb061283a565b6007811115611cc157611cc161283a565b815260028201546020820152600382015460408201526004820154606082015260058201546080820152600682015460a0820152600782015460c0820152600882015460e08201526009820154610100820152600a820154610120820152600b9091015460ff161515610140909101526124d4565b82546040517f99d91a6dc986e8e4b9e0b3856ba9c060e0217be63284d5375af6ef2718eac767906119c090859085904390612be3565b6000611d766103f7565b600083815260048201602052604081209192505b8154811015611ec3576000828281548110611da757611da7612c0c565b600091825260208083209091015487835260028701825260408084206001600160a01b0390921680855291909252912080549192509015801590611df757506001810154600160881b900460ff16155b8015611e0f57506001810154600160901b900460ff16155b15611eae57600181018054600160901b60ff60901b199091161790819055601286018054600160281b9092046001600160601b031691600090611e5390849061280e565b90915550506001810154604051600160281b9091046001600160601b031681526001600160a01b0383169087907f24dbd32e6f90c7f45350b3fa0cf8614b4e2a6418e9584821852b346dd86ae5e39060200160405180910390a35b50508080611ebb90612c22565b915050611d8a565b50505050565b600080611ed46103f7565b6000848152602082905260409020600881015491925090158015611efa57506009810154155b15611f105750670de0b6b3a76400009392505050565b50670de0b6b3a76400009392505050565b600080611f2c6103f7565b6000858152600482016020526040812091925080805b8354811015612010576000888152600386016020526040812085548290879085908110611f7157611f71612c0c565b60009182526020808320909101546001600160a01b031683528201929092526040019020600181015490915015801590611fb05750600481015460ff16155b15611ffd576000600282015460ff166001811115611fd057611fd061283a565b03611feb576001810154611fe4908561280e565b9350611ffd565b6001810154611ffa908461280e565b92505b508061200881612c22565b915050611f42565b5080821061201e5780612020565b815b945061c35060005b84548110156122b757815a1161209e5760405162461bcd60e51b815260206004820152603560248201527f436c656172536574746c653a204f7574206f6620676173202d206c6f6f702063604482015274616e6e6f7420636f6e74696e756520736166656c7960581b6064820152608401610436565b60008582815481106120b2576120b2612c0c565b60009182526020808320909101548c835260038a01825260408084206001600160a01b0390921680855291909252912060018101549192509015806120fb5750600481015460ff165b156121075750506122a5565b60048101546121189060ff166124ec565b60048101805460ff191660019081179091558101546000600283015460ff1660018111156121485761214861283a565b036121e4576040518060800160405280828152602001670de0b6b3a76400008d846121739190612c3b565b61217d9190612c52565b81526000602080830182905260409283018290528f825260058d0181528282206001600160a01b0388168352815290829020835181559083015160018201559082015160028201556060909101516003909101805460ff19169115159190911790556122a1565b6040518060800160405280670de0b6b3a76400008d846122049190612c3b565b61220e9190612c52565b815260200182815260200160008152602001600015158152508960050160008e81526020019081526020016000206000856001600160a01b03166001600160a01b0316815260200190815260200160002060008201518160000155602082015181600101556040820151816002015560608201518160030160006101000a81548160ff0219169083151502179055509050505b5050505b806122af81612c22565b915050612028565b50505050505092915050565b60006122cd6103f7565b90506000806122dc83476124fa565b9150915081816040516020016122f29190612c98565b60405160208183030381529060405290611ec35760405162461bcd60e51b81526004016104369190612cd2565b60006123296103f7565b90506000600183015460ff1660078111156123465761234661283a565b148061236a57506006600183015460ff1660078111156123685761236861283a565b145b8061238d57506007600183015460ff16600781111561238b5761238b61283a565b145b15612396575050565b6000826002015443611ec39190612a01565b60006123b26103f7565b6001848101805460ff1990811660071790915560148301805490911690911790559050601581016123e38382612ab2565b5082546040517faeb09c5dac40a41c7bdae7e4aadf410d9ac054607650ac5d885e299cf5759ed3906119c0908590612cd2565b6000816040015160000361242c57506001919050565b506060810151600190156124515780801561244e575081606001518260400151105b90505b6080820151156124725780801561246f575081608001518260600151105b90505b60a0820151156124945780801561249157508160a00151826080015111155b90505b60c0820151156124b5578080156124b257508160c001518260a00151105b90505b919050565b6124c48282612634565b6124d0576124d0612d05565b5050565b6124dd81612416565b6124e9576124e9612d05565b50565b80156124e9576124e9612d05565b600060606000846011015485601001546125149190612a01565b905083811115612548575050604080518082019091526008815267534f4c56454e435960c01b60208201526000915061262d565b612560856010015486601101548688601201546127b3565b61259257505060408051808201909152600c81526b21a7a729a2a92b20aa24a7a760a11b60208201526000915061262d565b600180860154600090815260208781526040918290208251610180810190935280548352928301546125d9929184919083019060ff166007811115611b4857611b4861283a565b6126145760006040518060400160405280601181526020017054494d455f4d4f4e4f544f4e494349545960781b81525093509350505061262d565b6001604051806020016040528060008152509350935050505b9250929050565b6000600782600781111561264a5761264a61283a565b0361265757506001610d69565b600083600781111561266b5761266b61283a565b0361268d5760015b8260078111156126855761268561283a565b149050610d69565b60018360078111156126a1576126a161283a565b036126ad576002612673565b60028360078111156126c1576126c161283a565b036126cd576003612673565b60038360078111156126e1576126e161283a565b036126ed576004612673565b60048360078111156127015761270161283a565b0361272f57600582600781111561271a5761271a61283a565b148061272857506003612673565b9050610d69565b60058360078111156127435761274361283a565b0361274f576006612673565b60068360078111156127635761276361283a565b0361278a57600082600781111561277c5761277c61283a565b148061272857506001612673565b600783600781111561279e5761279e61283a565b036127aa576000612673565b50600092915050565b6000806127c08587612a01565b90508084106127de5760016127d58286612a01565b111591506127ef565b60016127ea8583612a01565b111591505b50949350505050565b634e487b7160e01b600052601160045260246000fd5b80820180821115610d6957610d696127f8565b60006020828403121561283357600080fd5b5035919050565b634e487b7160e01b600052602160045260246000fd5b600881106128605761286061283a565b9052565b8151815260208083015161018083019161288090840182612850565b5060408301516040830152606083015160608301526080830151608083015260a083015160a083015260c083015160c083015260e083015160e0830152610100808401518184015250610120808401518184015250610140808401518184015250610160808401516128f58285018215159052565b505092915050565b6000806040838503121561291057600080fd5b8235915060208301356001600160a01b038116811461292e57600080fd5b809150509250929050565b60208101610d698284612850565b6000806000806080858703121561295d57600080fd5b8435935060208501356002811061297357600080fd5b93969395505050506040820135916060013590565b6020808252601b908201527f436c656172536574746c653a205265656e7472616e742063616c6c0000000000604082015260600190565b60208082526022908201527f436c656172536574746c653a20456d657267656e6379206d6f64652061637469604082015261766560f01b606082015260800190565b81810381811115610d6957610d696127f8565b634e487b7160e01b600052604160045260246000fd5b600181811c90821680612a3e57607f821691505b602082108103612a5e57634e487b7160e01b600052602260045260246000fd5b50919050565b601f821115611a7d57600081815260208120601f850160051c81016020861015612a8b5750805b601f850160051c820191505b81811015612aaa57828155600101612a97565b505050505050565b815167ffffffffffffffff811115612acc57612acc612a14565b612ae081612ada8454612a2a565b84612a64565b602080601f831160018114612b155760008415612afd5750858301515b600019600386901b1c1916600185901b178555612aaa565b600085815260208120601f198616915b82811015612b4457888601518255948401946001909101908401612b25565b5085821015612b625787850151600019600388901b60f8161c191681555b5050505050600190811b01905550565b858152600060028610612b8757612b8761283a565b5060f89490941b60208501526021840192909252604183015260601b6bffffffffffffffffffffffff19166061820152607501919050565b8281526040810160028310612bd657612bd661283a565b8260208301529392505050565b60608101612bf18286612850565b612bfe6020830185612850565b826040830152949350505050565b634e487b7160e01b600052603260045260246000fd5b600060018201612c3457612c346127f8565b5060010190565b8082028115828204841417610d6957610d696127f8565b600082612c6f57634e487b7160e01b600052601260045260246000fd5b500490565b60005b83811015612c8f578181015183820152602001612c77565b50506000910152565b71024b73b30b934b0b73a103330b4b632b21d160751b815260008251612cc5816012850160208701612c74565b9190910160120192915050565b6020815260008251806020840152612cf1816040850160208701612c74565b601f01601f19169190910160400192915050565b634e487b7160e01b600052600160045260246000fdfe464f5243455f414456414e43453a2045706f6368206578636565646564206d6178206475726174696f6ea264697066735822122061fb4439c16e88172b05f592d85ff340c59b7f2d9ea873306d3ba010250cd69964736f6c63430008140033",
  "devdoc": {
    "author": "ClearSettle Team - TriHacker Tournament Finale",
    "details": "Implements fair ordering, invariant enforcement, partial finality, and oracle defense                            CLEARSETTLE PROTOCOL                                                                                                               An Adversarial-Resilient Settlement Protocol for Fair Batch Auctions                                                                                     KEY FEATURES:                                                                 Fair Ordering via Commit-Reveal (no MEV extraction)                        5 Core Invariants enforced on every state change                           Partial Finality with configurable safety buffer                           Oracle Defense through optimistic assertions                               Comprehensive threat model and attack mitigations                                                                                                      ARCHITECTURE OVERVIEW:     User Actions          Smart Contract           State Machine                                commitOrder()  Validate Bond  ACCEPTING_COMMITS                                                                              Store Hash                    (block time)                                                         revealOrder()  Verify Hash  ACCEPTING_REVEALS                                                                              Add to OrderBook                (block time)                                                         settleEpoch()  Calculate Price  SETTLING                                                                            Execute Batch                                                                                              Invariant Checks  SAFETY_BUFFER                                                                                                            (block time)                                                          claimSettlement()  Transfer Funds  FINALIZED   SECURITY MODEL: ===============  Attack               Mitigation  Front-running        Commit-reveal hides order details Sandwich attack      Batch execution at uniform price Reorg attack         Safety buffer waits for finality Flash loan           Multi-block settlement prevents atomic manipulation Oracle manipulation  Optimistic assertions with dispute window Griefing (no-reveal) Bond slashing for non-revealers Replay attack        Single execution invariant (idempotency) Reentrancy           Reentrancy guard + CEI pattern",
    "kind": "dev",
    "methods": {
      "claimSettlement(uint256)": {
        "details": "Requirements: - Epoch must be FINALIZED - Must have unclaimed settlement",
        "params": {
          "epochId": "Epoch to claim from  SAFETY BUFFER EXPLANATION: Even after settlement calculates, we wait X blocks before allowing withdrawals. This protects against blockchain reorgs that could reverse the settlement transaction.  WHY THIS MATTERS: Without safety buffer, an attacker could: 1. See settlement result they don't like 2. Bribe miners to reorg and exclude the settle tx 3. Submit different orders in the new reality  With safety buffer: - Must sustain reorg for many blocks (very expensive) - By the time withdrawal is possible, settlement is \"final\" "
        }
      },
      "commitOrder(bytes32)": {
        "details": "Requirements: - Must be in ACCEPTING_COMMITS phase - Must send at least minCommitBond ETH - Cannot commit twice in same epoch",
        "params": {
          "commitmentHash": "keccak256(abi.encodePacked(amount, side, limitPrice, salt, msg.sender))  HOW TO GENERATE COMMITMENT HASH (off-chain): ```javascript const hash = ethers.utils.solidityKeccak256(   ['uint256', 'uint8', 'uint256', 'bytes32', 'address'],   [amount, side, limitPrice, salt, userAddress] ); ```  IMPORTANT: Save your salt! You need it to reveal.  SECURITY PROPERTIES: - Hash hides amount, direction, and price from validators - Cannot be front-run because content is unknown - Bond ensures commitment is serious (anti-spam) "
        }
      },
      "constructor": {
        "details": "Initializes storage, configuration, and first epoch"
      },
      "forceAdvanceEpoch()": {
        "details": "Emergency escape hatch if epoch gets stuck  WHEN TO USE: - settle() keeps reverting due to bug - Epoch stuck beyond maxEpochDuration - Need to unlock user funds  WHAT HAPPENS: - Current epoch is voided (no settlements) - Users can withdraw original deposits - New epoch starts"
      },
      "getBlocksRemaining()": {
        "returns": {
          "blocks": "Number of blocks until phase transition  USEFUL FOR: - Frontend countdown timers - User decision making (how long to submit)"
        }
      },
      "getCalculatedPhase()": {
        "returns": {
          "_0": "Phase that would be active after lazy update  USEFUL FOR: - Frontend display - Determining if action is valid before sending tx"
        }
      },
      "getConfig()": {
        "returns": {
          "_0": "Configuration struct"
        }
      },
      "getCurrentEpochId()": {
        "returns": {
          "_0": "Current epoch number"
        }
      },
      "resetForDemo()": {
        "details": "This is for demonstration purposes - in production,       emergency mode would require governance/multisig to reset"
      },
      "revealOrder(uint256,uint8,uint256,bytes32)": {
        "details": "Requirements: - Must be in ACCEPTING_REVEALS phase - Must have existing commitment - Hash must match - Cannot reveal twice",
        "params": {
          "amount": "Order amount (in base units)",
          "limitPrice": "Maximum price for BUY, minimum for SELL",
          "salt": "Random bytes32 used when creating commitment  VERIFICATION: Contract reconstructs hash from parameters and verifies it matches the stored commitment hash. If mismatch, reverts.  BOND RETURN: On successful reveal, bond is immediately returned to user.  WHAT IF I DON'T REVEAL? Your bond will be slashed after the reveal phase ends. This prevents the \"free option\" attack. ",
          "side": "OrderSide.BUY or OrderSide.SELL"
        }
      },
      "settleEpoch()": {
        "custom:hoare-triple": "{P} settleEpoch() {Q}",
        "custom:postcondition": "Q:   INV1_SOLVENCY: balance' >= totalClaims'   INV2_CONSERVATION: deposits' - withdrawals' = balance' (1 wei)   INV3_MONOTONICITY: ... < settleBlock < safetyEndBlock   INV4_SINGLE_EXEC:  orders o: executions(o)  1   phase' = SAFETY_BUFFER",
        "custom:precondition": "P:   INV1_SOLVENCY: balance >= totalClaims   INV2_CONSERVATION: deposits - withdrawals = balance (1 wei)   INV3_MONOTONICITY: startBlock < commitEndBlock < revealEndBlock   phase = SETTLING",
        "details": "Can be called by anyone after reveal phase ends AUGMENTED SETTLEMENT LOGIC (per Module-1 Section 4.2): Implements VeriSolid augmentation with IN_TRANSITION locking to achieve reentrancy safety by design. ALGORITHM: 1. Pre-Condition Check: Validate phase and invariants 2. Augmentation Step: Lock state to IN_TRANSITION 3. Execution: Slash, calculate price, execute batch 4. Verify: Check post-settlement invariants 5. Transition: Move to SAFETY_BUFFER BATCH AUCTION MECHANICS: - Calculate total buy volume and sell volume - Determine clearing price where supply meets demand - Execute all orders at uniform clearing price - Ensures fair ordering (order of submission irrelevant) REENTRANCY PROTECTION: State is IN_TRANSITION during execution. Any reentrant call will see state != SETTLING and will revert per state machine guard.Requirements: - Must be in SETTLING phase - At least one revealed order exists - All invariants must hold before and after"
      }
    },
    "title": "ClearSettle",
    "version": 1
  },
  "userdoc": {
    "events": {
      "BondSlashed(uint256,address,uint256)": {
        "notice": "Emitted when bond is slashed (no-reveal)"
      },
      "EpochSettled(uint256,uint256,uint256)": {
        "notice": "Emitted when epoch settles"
      },
      "EpochStarted(uint256,uint256,uint256)": {
        "notice": "Emitted when a new epoch starts"
      },
      "EpochVoided(uint256,string)": {
        "notice": "Emitted on emergency void"
      },
      "InvariantChecked(string,bool)": {
        "notice": "Emitted when invariant is checked"
      },
      "OrderCommitted(uint256,address,bytes32)": {
        "notice": "Emitted when user commits to an order"
      },
      "OrderRevealed(uint256,address,uint256,uint8)": {
        "notice": "Emitted when user reveals their order"
      },
      "SettlementClaimed(uint256,address,uint256)": {
        "notice": "Emitted when user claims settlement"
      },
      "SettlementDisputed(uint256,address)": {
        "notice": "Emitted when settlement is disputed"
      }
    },
    "kind": "user",
    "methods": {
      "claimSettlement(uint256)": {
        "notice": "Claim settlement results (Phase 5: FINALIZED)"
      },
      "commitOrder(bytes32)": {
        "notice": "Commit to an order (Phase 1: ACCEPTING_COMMITS)"
      },
      "constructor": {
        "notice": "Deploy ClearSettle protocol"
      },
      "forceAdvanceEpoch()": {
        "notice": "Force advance a stuck epoch (Liveness guarantee)"
      },
      "getBlocksRemaining()": {
        "notice": "Get blocks remaining in current phase"
      },
      "getCalculatedPhase()": {
        "notice": "Get calculated phase based on current block"
      },
      "getCommitment(uint256,address)": {
        "notice": "Get commitment for trader in epoch"
      },
      "getConfig()": {
        "notice": "Get protocol configuration"
      },
      "getCurrentEpoch()": {
        "notice": "Get current epoch ID"
      },
      "getCurrentEpochId()": {
        "notice": "Get current epoch ID"
      },
      "getCurrentPhase()": {
        "notice": "Get current phase - override to satisfy interface"
      },
      "getEpochData(uint256)": {
        "notice": "Get epoch data - override to satisfy interface"
      },
      "getSettlementResult(uint256,address)": {
        "notice": "Get settlement result for trader in epoch"
      },
      "getStats()": {
        "notice": "Get protocol statistics"
      },
      "resetForDemo()": {
        "notice": "Reset emergency mode and start fresh epoch (DEMO ONLY)"
      },
      "revealOrder(uint256,uint8,uint256,bytes32)": {
        "notice": "Reveal a committed order (Phase 2: ACCEPTING_REVEALS)"
      },
      "settleEpoch()": {
        "notice": "Trigger epoch settlement (Phase 3: SETTLING)"
      }
    },
    "notice": "Main entry point for the ClearSettle Epoch-Based Batch Auction Protocol",
    "version": 1
  },
  "storageLayout": {
    "storage": [],
    "types": null
  }
}