{
  "address": "0xa7b8405Ac7e7f350D80Bb86F8807192be7244Ddb",
  "abi": [
    {
      "inputs": [
        {
          "internalType": "address",
          "name": "_chainlink",
          "type": "address"
        },
        {
          "internalType": "address",
          "name": "_pyth",
          "type": "address"
        },
        {
          "internalType": "address",
          "name": "_uniswapTWAP",
          "type": "address"
        }
      ],
      "stateMutability": "nonpayable",
      "type": "constructor"
    },
    {
      "anonymous": false,
      "inputs": [
        {
          "indexed": false,
          "internalType": "string",
          "name": "source",
          "type": "string"
        },
        {
          "indexed": false,
          "internalType": "string",
          "name": "reason",
          "type": "string"
        }
      ],
      "name": "OracleFetchFailed",
      "type": "event"
    },
    {
      "anonymous": false,
      "inputs": [
        {
          "indexed": false,
          "internalType": "string",
          "name": "source",
          "type": "string"
        },
        {
          "indexed": false,
          "internalType": "uint256",
          "name": "price",
          "type": "uint256"
        },
        {
          "indexed": false,
          "internalType": "uint256",
          "name": "timestamp",
          "type": "uint256"
        }
      ],
      "name": "OraclePriceFetched",
      "type": "event"
    },
    {
      "anonymous": false,
      "inputs": [
        {
          "indexed": true,
          "internalType": "bytes32",
          "name": "pairId",
          "type": "bytes32"
        },
        {
          "indexed": false,
          "internalType": "uint256",
          "name": "medianPrice",
          "type": "uint256"
        },
        {
          "indexed": false,
          "internalType": "uint8",
          "name": "sourceCount",
          "type": "uint8"
        },
        {
          "indexed": false,
          "internalType": "uint256",
          "name": "deviation",
          "type": "uint256"
        },
        {
          "indexed": false,
          "internalType": "bool",
          "name": "isHealthy",
          "type": "bool"
        }
      ],
      "name": "PriceAggregated",
      "type": "event"
    },
    {
      "inputs": [],
      "name": "MAX_ACCEPTABLE_DEVIATION",
      "outputs": [
        {
          "internalType": "uint256",
          "name": "",
          "type": "uint256"
        }
      ],
      "stateMutability": "view",
      "type": "function"
    },
    {
      "inputs": [],
      "name": "MAX_PRICE_AGE",
      "outputs": [
        {
          "internalType": "uint256",
          "name": "",
          "type": "uint256"
        }
      ],
      "stateMutability": "view",
      "type": "function"
    },
    {
      "inputs": [],
      "name": "MIN_SOURCES_REQUIRED",
      "outputs": [
        {
          "internalType": "uint256",
          "name": "",
          "type": "uint256"
        }
      ],
      "stateMutability": "view",
      "type": "function"
    },
    {
      "inputs": [],
      "name": "chainlink",
      "outputs": [
        {
          "internalType": "contract ChainlinkOracleAdapter",
          "name": "",
          "type": "address"
        }
      ],
      "stateMutability": "view",
      "type": "function"
    },
    {
      "inputs": [
        {
          "internalType": "bytes32",
          "name": "pairId",
          "type": "bytes32"
        }
      ],
      "name": "getAggregatedPrice",
      "outputs": [
        {
          "components": [
            {
              "internalType": "uint256",
              "name": "price",
              "type": "uint256"
            },
            {
              "internalType": "uint256",
              "name": "timestamp",
              "type": "uint256"
            },
            {
              "internalType": "uint256",
              "name": "confidence",
              "type": "uint256"
            },
            {
              "internalType": "uint256",
              "name": "deviation",
              "type": "uint256"
            },
            {
              "internalType": "uint8",
              "name": "sourceCount",
              "type": "uint8"
            },
            {
              "internalType": "bool",
              "name": "isHealthy",
              "type": "bool"
            },
            {
              "internalType": "string[]",
              "name": "activeSources",
              "type": "string[]"
            }
          ],
          "internalType": "struct OracleAggregator.AggregatedPrice",
          "name": "",
          "type": "tuple"
        }
      ],
      "stateMutability": "nonpayable",
      "type": "function"
    },
    {
      "inputs": [
        {
          "internalType": "bytes32",
          "name": "pairId",
          "type": "bytes32"
        }
      ],
      "name": "getEmergencyPrice",
      "outputs": [
        {
          "internalType": "uint256",
          "name": "price",
          "type": "uint256"
        },
        {
          "internalType": "string",
          "name": "warning",
          "type": "string"
        }
      ],
      "stateMutability": "nonpayable",
      "type": "function"
    },
    {
      "inputs": [
        {
          "internalType": "bytes32",
          "name": "pairId",
          "type": "bytes32"
        }
      ],
      "name": "getIndividualPrices",
      "outputs": [
        {
          "internalType": "uint256",
          "name": "chainlinkPrice",
          "type": "uint256"
        },
        {
          "internalType": "uint256",
          "name": "pythPrice",
          "type": "uint256"
        },
        {
          "internalType": "uint256",
          "name": "uniswapPrice",
          "type": "uint256"
        },
        {
          "internalType": "bool",
          "name": "chainlinkSuccess",
          "type": "bool"
        },
        {
          "internalType": "bool",
          "name": "pythSuccess",
          "type": "bool"
        },
        {
          "internalType": "bool",
          "name": "uniswapSuccess",
          "type": "bool"
        }
      ],
      "stateMutability": "view",
      "type": "function"
    },
    {
      "inputs": [],
      "name": "pyth",
      "outputs": [
        {
          "internalType": "contract PythOracleAdapter",
          "name": "",
          "type": "address"
        }
      ],
      "stateMutability": "view",
      "type": "function"
    },
    {
      "inputs": [],
      "name": "uniswapTWAP",
      "outputs": [
        {
          "internalType": "contract UniswapV3TWAPAdapter",
          "name": "",
          "type": "address"
        }
      ],
      "stateMutability": "view",
      "type": "function"
    },
    {
      "inputs": [
        {
          "internalType": "bytes32",
          "name": "pairId",
          "type": "bytes32"
        },
        {
          "internalType": "uint256",
          "name": "claimedPrice",
          "type": "uint256"
        },
        {
          "internalType": "uint256",
          "name": "claimTimestamp",
          "type": "uint256"
        }
      ],
      "name": "verifyClaimedPrice",
      "outputs": [
        {
          "internalType": "bool",
          "name": "isValid",
          "type": "bool"
        },
        {
          "internalType": "string",
          "name": "reason",
          "type": "string"
        }
      ],
      "stateMutability": "nonpayable",
      "type": "function"
    }
  ],
  "transactionHash": "0xf645585ed6df37fd2cec0e853feb75267e115349f78a591f2347eb81ad654eca",
  "args": [
    "0xa8dBDa42f882140eF0f1ca48435441dCba635C4a",
    "0xb036C992911C98C7BcfcA5f7630829D74e17F270",
    "0x6BD710D43929dba6b2E384734E81f3f3BD0A464a"
  ],
  "numDeployments": 1,
  "solcInputHash": "36e2fb7e37fcd5942e57e0a5463f4682",
  "bytecode": "0x60806040523480156200001157600080fd5b5060405162001cac38038062001cac8339810160408190526200003491620001d5565b6001600160a01b038316620000a45760405162461bcd60e51b815260206004820152602b60248201527f4f7261636c6541676772656761746f723a20496e76616c696420436861696e6c60448201526a696e6b206164647265737360a81b60648201526084015b60405180910390fd5b6001600160a01b0382166200010b5760405162461bcd60e51b815260206004820152602660248201527f4f7261636c6541676772656761746f723a20496e76616c69642050797468206160448201526564647265737360d01b60648201526084016200009b565b6001600160a01b038116620001755760405162461bcd60e51b815260206004820152602960248201527f4f7261636c6541676772656761746f723a20496e76616c696420556e6973776160448201526870206164647265737360b81b60648201526084016200009b565b600080546001600160a01b039485166001600160a01b0319918216179091556001805493851693821693909317909255600280549190931691161790556200021f565b80516001600160a01b0381168114620001d057600080fd5b919050565b600080600060608486031215620001eb57600080fd5b620001f684620001b8565b92506200020660208501620001b8565b91506200021660408501620001b8565b90509250925092565b611a7d806200022f6000396000f3fe608060405234801561001057600080fd5b506004361061009e5760003560e01c80639c3feeb7116100665780639c3feeb71461016a5780639d7f7e8614610195578063bdbde1f41461019e578063d8a0a352146101a7578063f98d06f0146101ba57600080fd5b806301dee057146100a35780631fde7f26146100cd57806327d69475146100ed5780632ee2f1281461010e5780639a321e3d14610124575b600080fd5b6100b66100b1366004611259565b6101cd565b6040516100c49291906112cb565b60405180910390f35b6100e06100db3660046112ee565b610358565b6040516100c49190611307565b6101006100fb3660046112ee565b610992565b6040516100c49291906113b8565b610116600281565b6040519081526020016100c4565b6101376101323660046112ee565b610a4f565b604080519687526020870195909552938501929092521515606084015215156080830152151560a082015260c0016100c4565b60005461017d906001600160a01b031681565b6040516001600160a01b0390911681526020016100c4565b610116610e1081565b610116610bb881565b60025461017d906001600160a01b031681565b60015461017d906001600160a01b031681565b6000606060006101dc86610358565b90506000816000015186116102125781516101f787826113e7565b610203906127106113fa565b61020d9190611427565b610234565b815161021e81886113e7565b61022a906127106113fa565b6102349190611427565b9050610bb88111156102665760006040518060600160405280603181526020016119f560319139935093505050610350565b8160a001516102955760006040518060600160405280602c8152602001611959602c9139935093505050610350565b428511156102e05760006040518060400160405280601b81526020017f436c61696d65642074696d657374616d7020696e206675747572650000000000815250935093505050610350565b610e106102ed86426113e7565b111561032e5760006040518060400160405280601581526020017410db185a5b5959081c1c9a58d9481d1bdbc81bdb19605a1b815250935093505050610350565b6001604051806060016040528060228152602001611a26602291399350935050505b935093915050565b61039d6040518060e0016040528060008152602001600081526020016000815260200160008152602001600060ff168152602001600015158152602001606081525090565b60408051600380825260808201909252600091816020015b6103e260405180608001604052806000815260200160008152602001600015158152602001606081525090565b8152602001906001900390816103b5579050506000805460405163b2ee2f0160e01b81526004810187905292935090916001600160a01b039091169063b2ee2f0190602401606060405180830381865afa925050508015610460575060408051601f3d908101601f1916820190925261045d91810190611451565b60015b6104e05761046c611499565b806308c379a0036104b657506104806114f0565b8061048b57506104b8565b600080516020611939833981519152816040516104a8919061157a565b60405180910390a15061058e565b505b6000805160206119398339815191526040516104d3906115b5565b60405180910390a161058e565b604051806080016040528084815260200183815260200160011515815260200160405180604001604052806009815260200168436861696e6c696e6b60b81b81525081525085858061053190611611565b965060ff168151811061054657610546611630565b60200260200101819052507f14291c3647547e7abe3197b5c24b2b24317b6b49fde545229aa990e119915cac8383604051610582929190611646565b60405180910390a15050505b60015460405163b2ee2f0160e01b8152600481018690526001600160a01b039091169063b2ee2f0190602401606060405180830381865afa9250505080156105f3575060408051601f3d908101601f191682019092526105f09181019061167f565b60015b610673576105ff611499565b806308c379a00361064957506106136114f0565b8061061e575061064b565b6000805160206119398339815191528160405161063b91906116ba565b60405180910390a15061071c565b505b600080516020611939833981519152604051610666906116de565b60405180910390a161071c565b6040518060800160405280848152602001838152602001600115158152602001604051806040016040528060048152602001630a0f2e8d60e31b8152508152508585806106bf90611611565b965060ff16815181106106d4576106d4611630565b60200260200101819052507f14291c3647547e7abe3197b5c24b2b24317b6b49fde545229aa990e119915cac8383604051610710929190611702565b60405180910390a15050505b60025460405163b2ee2f0160e01b8152600481018690526001600160a01b039091169063b2ee2f01906024016040805180830381865afa925050508015610780575060408051601f3d908101601f1916820190925261077d91810190611726565b60015b6108005761078c611499565b806308c379a0036107d657506107a06114f0565b806107ab57506107d8565b600080516020611939833981519152816040516107c8919061174a565b60405180910390a1506108b0565b505b6000805160206119398339815191526040516107f390611776565b60405180910390a16108b0565b60405180608001604052808381526020018281526020016001151581526020016040518060400160405280600c81526020016b0556e697377617020545741560a41b81525081525084848061085490611611565b955060ff168151811061086957610869611630565b60200260200101819052507f14291c3647547e7abe3197b5c24b2b24317b6b49fde545229aa990e119915cac82826040516108a59291906117a2565b60405180910390a150505b60028160ff16101561091f5760405162461bcd60e51b815260206004820152602d60248201527f4f7261636c6541676772656761746f723a20496e73756666696369656e74206f60448201526c7261636c6520736f757263657360981b60648201526084015b60405180910390fd5b600061092b8383610bd1565b805160808083015160608085015160a08601516040805196875260ff9094166020870152928501529015159083015291925086917fa45624e8e42e14c08dfebd5af1e4696568e4cf34856144749549e4d153805103910160405180910390a2949350505050565b6000606060006109a184610358565b90508060a00151610a3357610bb8816060015111156109da576040518060800160405280604a81526020016119ab604a91399150610a46565b610e108160200151426109ed91906113e7565b1115610a13576040518060800160405280604181526020016118f8604191399150610a46565b604051806060016040528060268152602001611985602691399150610a46565b6040518060200160405280600081525091505b51939092509050565b6000805460405163b2ee2f0160e01b815260048101849052829182918291829182916001600160a01b03169063b2ee2f0190602401606060405180830381865afa925050508015610abd575060408051601f3d908101601f19168201909252610aba91810190611451565b60015b610aca5760009250610ad4565b5090965060019350505b60015460405163b2ee2f0160e01b8152600481018990526001600160a01b039091169063b2ee2f0190602401606060405180830381865afa925050508015610b39575060408051601f3d908101601f19168201909252610b369181019061167f565b60015b610b465760009150610b50565b5090955060019250505b60025460405163b2ee2f0160e01b8152600481018990526001600160a01b039091169063b2ee2f01906024016040805180830381865afa925050508015610bb4575060408051601f3d908101601f19168201909252610bb191810190611726565b60015b610bc057506000610bc8565b509350600190505b91939550919395565b610c166040518060e0016040528060008152602001600081526020016000815260200160008152602001600060ff168152602001600015158152602001606081525090565b60028260ff161015610c745760405162461bcd60e51b815260206004820152602160248201527f4f7261636c6541676772656761746f723a20546f6f2066657720736f757263656044820152607360f81b6064820152608401610916565b60008260ff1667ffffffffffffffff811115610c9257610c9261143b565b604051908082528060200260200182016040528015610cbb578160200160208202803683370190505b50905060008360ff1667ffffffffffffffff811115610cdc57610cdc61143b565b604051908082528060200260200182016040528015610d05578160200160208202803683370190505b50905060008460ff1667ffffffffffffffff811115610d2657610d2661143b565b604051908082528060200260200182016040528015610d5957816020015b6060815260200190600190039081610d445790505b50905060005b8560ff168160ff161015610e4557868160ff1681518110610d8257610d82611630565b602002602001015160000151848260ff1681518110610da357610da3611630565b602002602001018181525050868160ff1681518110610dc457610dc4611630565b602002602001015160200151838260ff1681518110610de557610de5611630565b602002602001018181525050868160ff1681518110610e0657610e06611630565b602002602001015160600151828260ff1681518110610e2757610e27611630565b60200260200101819052508080610e3d90611611565b915050610d5f565b5060018560ff161115610e6b57610e6b836000610e636001896117ce565b60ff166110db565b6000610e786002876117e7565b60ff16600003610efa57600284610e8f8289611809565b60ff1681518110610ea257610ea2611630565b602002602001015185600160028a610eba9190611809565b610ec491906117ce565b60ff1681518110610ed757610ed7611630565b6020026020010151610ee9919061182b565b610ef39190611427565b9050610f24565b83610f06600288611809565b60ff1681518110610f1957610f19611630565b602002602001015190505b600084600081518110610f3957610f39611630565b60200260200101519050600085600189610f5391906117ce565b60ff1681518110610f6657610f66611630565b602002602001015190506000838383610f7f91906113e7565b610f8b906127106113fa565b610f959190611427565b905060006127108210610fa9576000610fb5565b610fb5826127106113e7565b9050612710610fc58260646113fa565b610fcf9190611427565b9050600087600081518110610fe657610fe6611630565b602002602001015190506000600190505b8b60ff168160ff16101561105b5781898260ff168151811061101b5761101b611630565b6020026020010151101561104957888160ff168151811061103e5761103e611630565b602002602001015191505b8061105381611611565b915050610ff7565b506001610bb884111561106c575060005b610e1061107983426113e7565b1115611083575060005b6032831015611090575060005b6040518060e001604052808881526020018381526020018481526020018581526020018d60ff1681526020018215158152602001898152509a50505050505050505050505b92915050565b8082126110e757505050565b818160008560026110f8858561183e565b6111029190611865565b61110c9087611893565b8151811061111c5761111c611630565b602002602001015190505b81831361122b575b8086848151811061114257611142611630565b60200260200101511015611162578261115a816118bb565b93505061112f565b85828151811061117457611174611630565b6020026020010151811015611195578161118d816118da565b925050611162565b818313611226578582815181106111ae576111ae611630565b60200260200101518684815181106111c8576111c8611630565b60200260200101518785815181106111e2576111e2611630565b602002602001018885815181106111fb576111fb611630565b60209081029190910101919091525282611214816118bb565b9350508180611222906118da565b9250505b611127565b8185121561123e5761123e8686846110db565b83831215611251576112518684866110db565b505050505050565b60008060006060848603121561126e57600080fd5b505081359360208301359350604090920135919050565b6000815180845260005b818110156112ab5760208185018101518683018201520161128f565b506000602082860101526020601f19601f83011685010191505092915050565b82151581526040602082015260006112e66040830184611285565b949350505050565b60006020828403121561130057600080fd5b5035919050565b600060208083526101008301845182850152818501516040850152604085015160608501526060850151608085015260ff60808601511660a085015260a0850151151560c085015260c085015160e08086015281815180845261012093508387019150838160051b8801019350848301925060005b818110156113ab5761011f19888603018352611399858551611285565b9450928501929185019160010161137c565b5092979650505050505050565b8281526040602082015260006112e66040830184611285565b634e487b7160e01b600052601160045260246000fd5b818103818111156110d5576110d56113d1565b80820281158282048414176110d5576110d56113d1565b634e487b7160e01b600052601260045260246000fd5b60008261143657611436611411565b500490565b634e487b7160e01b600052604160045260246000fd5b60008060006060848603121561146657600080fd5b8351925060208401519150604084015169ffffffffffffffffffff8116811461148e57600080fd5b809150509250925092565b600060033d11156114b25760046000803e5060005160e01c5b90565b601f8201601f1916810167ffffffffffffffff811182821017156114e957634e487b7160e01b600052604160045260246000fd5b6040525050565b600060443d10156114fe5790565b6040516003193d81016004833e81513d67ffffffffffffffff816024840111818411171561152e57505050505090565b82850191508151818111156115465750505050505090565b843d87010160208285010111156115605750505050505090565b61156f602082860101876114b5565b509095945050505050565b6040815260006115a3604083016009815268436861696e6c696e6b60b81b602082015260400190565b82810360208401526112e68185611285565b6040815260006115de604083016009815268436861696e6c696e6b60b81b602082015260400190565b828103602084015261160a81600d81526c2ab735b737bbb71032b93937b960991b602082015260400190565b9392505050565b600060ff821660ff8103611627576116276113d1565b60010192915050565b634e487b7160e01b600052603260045260246000fd5b60608152600061166f606083016009815268436861696e6c696e6b60b81b602082015260400190565b6020830194909452506040015290565b60008060006060848603121561169457600080fd5b8351925060208401519150604084015167ffffffffffffffff8116811461148e57600080fd5b6040815260006115a36040830160048152630a0f2e8d60e31b602082015260400190565b6040815260006115de6040830160048152630a0f2e8d60e31b602082015260400190565b60608152600061166f6060830160048152630a0f2e8d60e31b602082015260400190565b6000806040838503121561173957600080fd5b505080516020909101519092909150565b6040815260006115a360408301600c81526b0556e697377617020545741560a41b602082015260400190565b6040815260006115de60408301600c81526b0556e697377617020545741560a41b602082015260400190565b60608152600061166f60608301600c81526b0556e697377617020545741560a41b602082015260400190565b60ff82811682821603908111156110d5576110d56113d1565b600060ff8316806117fa576117fa611411565b8060ff84160691505092915050565b600060ff83168061181c5761181c611411565b8060ff84160491505092915050565b808201808211156110d5576110d56113d1565b818103600083128015838313168383128216171561185e5761185e6113d1565b5092915050565b60008261187457611874611411565b600160ff1b82146000198414161561188e5761188e6113d1565b500590565b80820182811260008312801582168215821617156118b3576118b36113d1565b505092915050565b60006001600160ff1b0182016118d3576118d36113d1565b5060010190565b6000600160ff1b82016118ef576118ef6113d1565b50600019019056fe5741524e494e473a204f7261636c652064617461207374616c65202d207072696365206d6179206e6f74207265666c6563742063757272656e74206d61726b6574bd6a47a0fc1791b697df0534a73d88a501878f1f79b24d22a35d891ea2c34e294f7261636c65206461746120756e6865616c746879202d20636f6e666c696374696e67206f72207374616c655741524e494e473a204c6f7720636f6e666964656e636520696e206f7261636c6520646174615741524e494e473a204f7261636c6520736f757263657320636f6e666c696374203e333025202d207573696e67206d656469616e2077697468204849474820554e4345525441494e5459436c61696d6564207072696365206465766961746573203e3330252066726f6d206f7261636c6520636f6e73656e7375735072696365207665726966696564206279206f7261636c6520636f6e73656e737573a2646970667358221220616030b606555226ce782fe2d84e5bf2cb63d3034ee14c26d60eeee16f22a1ce64736f6c63430008140033",
  "devdoc": {
    "details": "Handles: conflicting values, staleness, 30% manipulation, missing updatesByzantine-resistant: 2/3 honest oracles ensure correct median price",
    "kind": "dev",
    "methods": {
      "getAggregatedPrice(bytes32)": {
        "details": "Handles all 4 adversarial conditions from hackathon spec",
        "params": {
          "pairId": "Asset pair (e.g., keccak256(\"ETH/USD\"))"
        },
        "returns": {
          "_0": "Aggregated price data with health metrics"
        }
      },
      "getEmergencyPrice(bytes32)": {
        "details": "Only use when system must proceed despite oracle issues",
        "params": {
          "pairId": "Asset pair"
        },
        "returns": {
          "price": "Median price (may be unreliable)",
          "warning": "Explicit warning message"
        }
      },
      "getIndividualPrices(bytes32)": {
        "details": "Useful for debugging and showing which oracle is outlier",
        "params": {
          "pairId": "Asset pair"
        },
        "returns": {
          "chainlinkPrice": "Price from Chainlink",
          "chainlinkSuccess": "True if Chainlink succeeded",
          "pythPrice": "Price from Pyth",
          "pythSuccess": "True if Pyth succeeded",
          "uniswapPrice": "Price from Uniswap TWAP",
          "uniswapSuccess": "True if Uniswap succeeded"
        }
      },
      "verifyClaimedPrice(bytes32,uint256,uint256)": {
        "details": "Used in dispute resolution - checks against all 4 adversarial conditions",
        "params": {
          "claimTimestamp": "When price was claimed",
          "claimedPrice": "Price submitted by prover",
          "pairId": "Asset pair"
        },
        "returns": {
          "isValid": "True if claim passes verification",
          "reason": "Explanation of result"
        }
      }
    },
    "title": "OracleAggregator",
    "version": 1
  },
  "userdoc": {
    "kind": "user",
    "methods": {
      "getAggregatedPrice(bytes32)": {
        "notice": "Get aggregated price from all oracle sources"
      },
      "getEmergencyPrice(bytes32)": {
        "notice": "Emergency: Get price even if unhealthy (with explicit warnings)"
      },
      "getIndividualPrices(bytes32)": {
        "notice": "Get individual oracle prices for transparency"
      },
      "verifyClaimedPrice(bytes32,uint256,uint256)": {
        "notice": "Verify if a claimed price is reasonable given current oracle state"
      }
    },
    "notice": "Aggregates 3 oracle sources with Byzantine fault tolerance",
    "version": 1
  },
  "storageLayout": {
    "storage": [
      {
        "astId": 3515,
        "contract": "contracts/oracles/OracleAggregator.sol:OracleAggregator",
        "label": "chainlink",
        "offset": 0,
        "slot": "0",
        "type": "t_contract(ChainlinkOracleAdapter)3013"
      },
      {
        "astId": 3518,
        "contract": "contracts/oracles/OracleAggregator.sol:OracleAggregator",
        "label": "pyth",
        "offset": 0,
        "slot": "1",
        "type": "t_contract(PythOracleAdapter)4839"
      },
      {
        "astId": 3521,
        "contract": "contracts/oracles/OracleAggregator.sol:OracleAggregator",
        "label": "uniswapTWAP",
        "offset": 0,
        "slot": "2",
        "type": "t_contract(UniswapV3TWAPAdapter)5816"
      }
    ],
    "types": {
      "t_contract(ChainlinkOracleAdapter)3013": {
        "encoding": "inplace",
        "label": "contract ChainlinkOracleAdapter",
        "numberOfBytes": "20"
      },
      "t_contract(PythOracleAdapter)4839": {
        "encoding": "inplace",
        "label": "contract PythOracleAdapter",
        "numberOfBytes": "20"
      },
      "t_contract(UniswapV3TWAPAdapter)5816": {
        "encoding": "inplace",
        "label": "contract UniswapV3TWAPAdapter",
        "numberOfBytes": "20"
      }
    }
  }
}