{
  "address": "0x2C6f934825D61677a42546F1E62d7c61E731f96A",
  "abi": [
    {
      "inputs": [],
      "stateMutability": "nonpayable",
      "type": "constructor"
    },
    {
      "anonymous": false,
      "inputs": [
        {
          "indexed": true,
          "internalType": "bytes32",
          "name": "pairId",
          "type": "bytes32"
        },
        {
          "indexed": true,
          "internalType": "bytes32",
          "name": "feedId",
          "type": "bytes32"
        }
      ],
      "name": "PriceFeedRegistered",
      "type": "event"
    },
    {
      "anonymous": false,
      "inputs": [
        {
          "indexed": true,
          "internalType": "bytes32",
          "name": "pairId",
          "type": "bytes32"
        },
        {
          "indexed": false,
          "internalType": "uint256",
          "name": "price",
          "type": "uint256"
        },
        {
          "indexed": false,
          "internalType": "uint256",
          "name": "timestamp",
          "type": "uint256"
        },
        {
          "indexed": false,
          "internalType": "uint64",
          "name": "conf",
          "type": "uint64"
        }
      ],
      "name": "PriceFetched",
      "type": "event"
    },
    {
      "inputs": [],
      "name": "BTC_USD_FEED_ID",
      "outputs": [
        {
          "internalType": "bytes32",
          "name": "",
          "type": "bytes32"
        }
      ],
      "stateMutability": "view",
      "type": "function"
    },
    {
      "inputs": [],
      "name": "ETH_USD_FEED_ID",
      "outputs": [
        {
          "internalType": "bytes32",
          "name": "",
          "type": "bytes32"
        }
      ],
      "stateMutability": "view",
      "type": "function"
    },
    {
      "inputs": [],
      "name": "PYTH_ADDRESS",
      "outputs": [
        {
          "internalType": "address",
          "name": "",
          "type": "address"
        }
      ],
      "stateMutability": "view",
      "type": "function"
    },
    {
      "inputs": [
        {
          "internalType": "bytes32",
          "name": "",
          "type": "bytes32"
        }
      ],
      "name": "feedIds",
      "outputs": [
        {
          "internalType": "bytes32",
          "name": "",
          "type": "bytes32"
        }
      ],
      "stateMutability": "view",
      "type": "function"
    },
    {
      "inputs": [
        {
          "internalType": "bytes32",
          "name": "pairId",
          "type": "bytes32"
        }
      ],
      "name": "getLatestPrice",
      "outputs": [
        {
          "internalType": "uint256",
          "name": "price",
          "type": "uint256"
        },
        {
          "internalType": "uint256",
          "name": "timestamp",
          "type": "uint256"
        },
        {
          "internalType": "uint64",
          "name": "conf",
          "type": "uint64"
        }
      ],
      "stateMutability": "view",
      "type": "function"
    },
    {
      "inputs": [
        {
          "internalType": "bytes32",
          "name": "pairId",
          "type": "bytes32"
        }
      ],
      "name": "getPriceUnsafe",
      "outputs": [
        {
          "components": [
            {
              "internalType": "int64",
              "name": "price",
              "type": "int64"
            },
            {
              "internalType": "uint64",
              "name": "conf",
              "type": "uint64"
            },
            {
              "internalType": "int32",
              "name": "expo",
              "type": "int32"
            },
            {
              "internalType": "uint256",
              "name": "publishTime",
              "type": "uint256"
            }
          ],
          "internalType": "struct PythStructs.Price",
          "name": "priceData",
          "type": "tuple"
        }
      ],
      "stateMutability": "view",
      "type": "function"
    },
    {
      "inputs": [
        {
          "internalType": "uint256",
          "name": "updateDataSize",
          "type": "uint256"
        }
      ],
      "name": "getUpdateFee",
      "outputs": [
        {
          "internalType": "uint256",
          "name": "",
          "type": "uint256"
        }
      ],
      "stateMutability": "view",
      "type": "function"
    },
    {
      "inputs": [
        {
          "internalType": "bytes32",
          "name": "pairId",
          "type": "bytes32"
        }
      ],
      "name": "isFeedRegistered",
      "outputs": [
        {
          "internalType": "bool",
          "name": "",
          "type": "bool"
        }
      ],
      "stateMutability": "view",
      "type": "function"
    },
    {
      "inputs": [],
      "name": "pyth",
      "outputs": [
        {
          "internalType": "contract IPyth",
          "name": "",
          "type": "address"
        }
      ],
      "stateMutability": "view",
      "type": "function"
    },
    {
      "inputs": [
        {
          "internalType": "bytes[]",
          "name": "priceUpdateData",
          "type": "bytes[]"
        }
      ],
      "name": "updatePrice",
      "outputs": [],
      "stateMutability": "payable",
      "type": "function"
    }
  ],
  "transactionHash": "0xbeb3760f89570374acc61b1e2b8ec54fb73f078c8fdb1ad9c93546bf76b08e20",
  "args": [],
  "numDeployments": 1,
  "solcInputHash": "673db98589553c65cd3ed46ed5c3d373",
  "bytecode": "0x608060405234801561001057600080fd5b50600080546001600160a01b03191673dd24f84d36bf92c65f92307595335bdfab5bbd211781557f0b43555ace6b39aae1b894097d0a9fc17f504c62fea598fa206cc6f5088e6e4580825260016020527fff61491a931112ddf1bd8147cd1b641375f79f5825126d665480874634fd0ace7ff9fd3f62650d1f9e03c81d73608db1ed642cc138c793981214259c6359fe1d8a8190556040519092600080516020610e1683398151915291a37fee62665949c883f9e0f6f002eac32e00bd59dfe6c34e92a91c37d6a8322d6489600081815260016020527fe62df6c8b4a85fe1a67db44dc12de5db330f7ac66b72dc658afedf0f4a415b437f44c97f754092f455941e83a3a0f88b420e7d885ee633f42193a9378ed71bb2df819055604051909291600080516020610e1683398151915291a3610cc5806101516000396000f3fe6080604052600436106100915760003560e01c806396834ad31161005957806396834ad3146101a5578063b2ee2f0114610208578063d1870b911461024d578063e17efd481461027a578063f98d06f01461029a57600080fd5b806302a81708146100965780632592c0bf146100dd5780638b85bad5146100f25780639585ab5c14610131578063966a670914610171575b600080fd5b3480156100a257600080fd5b506100ca7fe62df6c8b4a85fe1a67db44dc12de5db330f7ac66b72dc658afedf0f4a415b4381565b6040519081526020015b60405180910390f35b6100f06100eb366004610813565b6102ba565b005b3480156100fe57600080fd5b5061012161010d366004610888565b600090815260016020526040902054151590565b60405190151581526020016100d4565b34801561013d57600080fd5b5061015973dd24f84d36bf92c65f92307595335bdfab5bbd2181565b6040516001600160a01b0390911681526020016100d4565b34801561017d57600080fd5b506100ca7fff61491a931112ddf1bd8147cd1b641375f79f5825126d665480874634fd0ace81565b3480156101b157600080fd5b506101c56101c0366004610888565b6103fc565b6040516100d49190815160070b815260208083015167ffffffffffffffff169082015260408083015160030b908201526060918201519181019190915260800190565b34801561021457600080fd5b50610228610223366004610888565b6104f0565b60408051938452602084019290925267ffffffffffffffff16908201526060016100d4565b34801561025957600080fd5b506100ca610268366004610888565b60016020526000908152604090205481565b34801561028657600080fd5b506100ca610295366004610888565b610699565b3480156102a657600080fd5b50600054610159906001600160a01b031681565b6000805460405163d47eed4560e01b81526001600160a01b039091169063d47eed45906102ed90869086906004016108ca565b602060405180830381865afa15801561030a573d6000803e3d6000fd5b505050506040513d601f19601f8201168201806040525081019061032e9190610966565b9050803410156103915760405162461bcd60e51b8152602060048201526024808201527f50797468416461707465723a20496e73756666696369656e74207570646174656044820152632066656560e01b60648201526084015b60405180910390fd5b600054604051631df3cbc560e31b81526001600160a01b039091169063ef9e5e289083906103c590879087906004016108ca565b6000604051808303818588803b1580156103de57600080fd5b505af11580156103f2573d6000803e3d6000fd5b5050505050505050565b6040805160808101825260008082526020820181905291810182905260608101919091526000828152600160205260409020548061047c5760405162461bcd60e51b815260206004820181905260248201527f50797468416461707465723a2046656564206e6f7420726567697374657265646044820152606401610388565b6000546040516396834ad360e01b8152600481018390526001600160a01b03909116906396834ad390602401608060405180830381865afa1580156104c5573d6000803e3d6000fd5b505050506040513d601f19601f820116820180604052508101906104e991906109c4565b9392505050565b60008181526001602052604081205481908190806105505760405162461bcd60e51b815260206004820181905260248201527f50797468416461707465723a2046656564206e6f7420726567697374657265646044820152606401610388565b600080546040516396834ad360e01b8152600481018490526001600160a01b03909116906396834ad390602401608060405180830381865afa15801561059a573d6000803e3d6000fd5b505050506040513d601f19601f820116820180604052508101906105be91906109c4565b90506000816000015160070b136106175760405162461bcd60e51b815260206004820152601a60248201527f50797468416461707465723a20496e76616c69642070726963650000000000006044820152606401610388565b600081606001511161066b5760405162461bcd60e51b815260206004820152601e60248201527f50797468416461707465723a20496e76616c69642074696d657374616d7000006044820152606401610388565b600061067f8260000151836040015161075b565b606083015160209093015190989297509550909350505050565b6000808267ffffffffffffffff8111156106b5576106b561097f565b6040519080825280602002602001820160405280156106e857816020015b60608152602001906001900390816106d35790505b5060005460405163d47eed4560e01b81529192506001600160a01b03169063d47eed459061071a908490600401610a54565b602060405180830381865afa158015610737573d6000803e3d6000fd5b505050506040513d601f19601f820116820180604052508101906104e99190610966565b6000808260030b12156107e057600061077383610afc565b905060128163ffffffff1610156107b65761078f816012610b1f565b61079a90600a610c27565b6107ae9067ffffffffffffffff8616610c39565b91505061080d565b6107c1601282610b1f565b6107cc90600a610c27565b6107ae9067ffffffffffffffff8616610c50565b6107eb826012610c72565b6107f690600a610c27565b61080a9067ffffffffffffffff8516610c39565b90505b92915050565b6000806020838503121561082657600080fd5b823567ffffffffffffffff8082111561083e57600080fd5b818501915085601f83011261085257600080fd5b81358181111561086157600080fd5b8660208260051b850101111561087657600080fd5b60209290920196919550909350505050565b60006020828403121561089a57600080fd5b5035919050565b81835281816020850137506000828201602090810191909152601f909101601f19169091010190565b60208082528181018390526000906040600585901b8401810190840186845b8781101561095957868403603f190183528135368a9003601e1901811261090f57600080fd5b8901858101903567ffffffffffffffff81111561092b57600080fd5b80360382131561093a57600080fd5b6109458682846108a1565b9550505091840191908401906001016108e9565b5091979650505050505050565b60006020828403121561097857600080fd5b5051919050565b634e487b7160e01b600052604160045260246000fd5b805167ffffffffffffffff811681146109ad57600080fd5b919050565b8051600381900b81146109ad57600080fd5b6000608082840312156109d657600080fd5b6040516080810181811067ffffffffffffffff82111715610a0757634e487b7160e01b600052604160045260246000fd5b6040528251600781900b8114610a1c57600080fd5b8152610a2a60208401610995565b6020820152610a3b604084016109b2565b6040820152606083015160608201528091505092915050565b6000602080830181845280855180835260408601915060408160051b87010192508387016000805b83811015610ad857888603603f1901855282518051808852835b81811015610ab1578281018a01518982018b01528901610a96565b508781018901849052601f01601f1916909601870195509386019391860191600101610a7c565b509398975050505050505050565b634e487b7160e01b600052601160045260246000fd5b60008160030b637fffffff198103610b1657610b16610ae6565b60000392915050565b63ffffffff828116828216039080821115610b3c57610b3c610ae6565b5092915050565b600181815b80851115610b7e578160001904821115610b6457610b64610ae6565b80851615610b7157918102915b93841c9390800290610b48565b509250929050565b600082610b955750600161080d565b81610ba25750600061080d565b8160018114610bb85760028114610bc257610bde565b600191505061080d565b60ff841115610bd357610bd3610ae6565b50506001821b61080d565b5060208310610133831016604e8410600b8410161715610c01575081810a61080d565b610c0b8383610b43565b8060001904821115610c1f57610c1f610ae6565b029392505050565b60006104e963ffffffff841683610b86565b808202811582820484141761080d5761080d610ae6565b600082610c6d57634e487b7160e01b600052601260045260246000fd5b500490565b63ffffffff818116838216019080821115610b3c57610b3c610ae656fea26469706673582212208f81d933adb72353a92bb8e6ef42d13cb439689c811ff92db59e9c9158b10bc564736f6c63430008140033ffa0c8fabf66b7e937e20e98eaeb75297ea6cb258c1fb5ffe054a0e5823b997e",
  "devdoc": {
    "details": "Official Sepolia testnet address from https://docs.pyth.network/price-feeds/contract-addresses/evm",
    "kind": "dev",
    "methods": {
      "getLatestPrice(bytes32)": {
        "params": {
          "pairId": "Asset pair identifier (e.g., keccak256(\"ETH/USD\"))"
        },
        "returns": {
          "conf": "Confidence interval",
          "price": "Normalized price (18 decimals)",
          "timestamp": "Publish time"
        }
      },
      "getPriceUnsafe(bytes32)": {
        "details": "Only use this if you need raw data and handle validation yourself",
        "params": {
          "pairId": "Asset pair identifier"
        },
        "returns": {
          "priceData": "Raw Pyth price struct"
        }
      },
      "getUpdateFee(uint256)": {
        "params": {
          "updateDataSize": "Number of price updates"
        },
        "returns": {
          "_0": "fee Required fee in wei"
        }
      },
      "isFeedRegistered(bytes32)": {
        "params": {
          "pairId": "Asset pair to check"
        },
        "returns": {
          "_0": "True if feed registered"
        }
      },
      "updatePrice(bytes[])": {
        "details": "Pyth requires price update data from Hermes API",
        "params": {
          "priceUpdateData": "Price update data from Pyth Hermes"
        }
      }
    },
    "title": "PythOracleAdapter",
    "version": 1
  },
  "userdoc": {
    "kind": "user",
    "methods": {
      "getLatestPrice(bytes32)": {
        "notice": "Get latest price from Pyth (normalized to 18 decimals)"
      },
      "getPriceUnsafe(bytes32)": {
        "notice": "Get Pyth price without safety checks (unsafe - use with caution)"
      },
      "getUpdateFee(uint256)": {
        "notice": "Get the current update fee for Pyth"
      },
      "isFeedRegistered(bytes32)": {
        "notice": "Check if feed is registered"
      },
      "updatePrice(bytes[])": {
        "notice": "Update Pyth price with off-chain data"
      }
    },
    "notice": "Fetches price data from Pyth Network (high-frequency oracle)",
    "version": 1
  },
  "storageLayout": {
    "storage": [
      {
        "astId": 4542,
        "contract": "contracts/oracles/PythOracleAdapter.sol:PythOracleAdapter",
        "label": "pyth",
        "offset": 0,
        "slot": "0",
        "type": "t_contract(IPyth)208"
      },
      {
        "astId": 4555,
        "contract": "contracts/oracles/PythOracleAdapter.sol:PythOracleAdapter",
        "label": "feedIds",
        "offset": 0,
        "slot": "1",
        "type": "t_mapping(t_bytes32,t_bytes32)"
      }
    ],
    "types": {
      "t_bytes32": {
        "encoding": "inplace",
        "label": "bytes32",
        "numberOfBytes": "32"
      },
      "t_contract(IPyth)208": {
        "encoding": "inplace",
        "label": "contract IPyth",
        "numberOfBytes": "20"
      },
      "t_mapping(t_bytes32,t_bytes32)": {
        "encoding": "mapping",
        "key": "t_bytes32",
        "label": "mapping(bytes32 => bytes32)",
        "numberOfBytes": "32",
        "value": "t_bytes32"
      }
    }
  }
}