{
  "address": "0x48d818288E1486eb70e8362f43DD30FdE08Ba261",
  "abi": [
    {
      "inputs": [],
      "stateMutability": "nonpayable",
      "type": "constructor"
    },
    {
      "anonymous": false,
      "inputs": [
        {
          "indexed": true,
          "internalType": "bytes32",
          "name": "pairId",
          "type": "bytes32"
        },
        {
          "indexed": false,
          "internalType": "address",
          "name": "poolAddress",
          "type": "address"
        },
        {
          "indexed": false,
          "internalType": "uint32",
          "name": "twapPeriod",
          "type": "uint32"
        }
      ],
      "name": "PoolRegistered",
      "type": "event"
    },
    {
      "anonymous": false,
      "inputs": [
        {
          "indexed": true,
          "internalType": "bytes32",
          "name": "pairId",
          "type": "bytes32"
        },
        {
          "indexed": false,
          "internalType": "uint256",
          "name": "price",
          "type": "uint256"
        },
        {
          "indexed": false,
          "internalType": "uint256",
          "name": "timestamp",
          "type": "uint256"
        }
      ],
      "name": "TWAPCalculated",
      "type": "event"
    },
    {
      "inputs": [],
      "name": "USDC",
      "outputs": [
        {
          "internalType": "address",
          "name": "",
          "type": "address"
        }
      ],
      "stateMutability": "view",
      "type": "function"
    },
    {
      "inputs": [],
      "name": "USDC_WETH_POOL_03",
      "outputs": [
        {
          "internalType": "address",
          "name": "",
          "type": "address"
        }
      ],
      "stateMutability": "view",
      "type": "function"
    },
    {
      "inputs": [],
      "name": "WETH",
      "outputs": [
        {
          "internalType": "address",
          "name": "",
          "type": "address"
        }
      ],
      "stateMutability": "view",
      "type": "function"
    },
    {
      "inputs": [
        {
          "internalType": "bytes32",
          "name": "pairId",
          "type": "bytes32"
        }
      ],
      "name": "getLatestPrice",
      "outputs": [
        {
          "internalType": "uint256",
          "name": "price",
          "type": "uint256"
        },
        {
          "internalType": "uint256",
          "name": "timestamp",
          "type": "uint256"
        }
      ],
      "stateMutability": "view",
      "type": "function"
    },
    {
      "inputs": [
        {
          "internalType": "bytes32",
          "name": "pairId",
          "type": "bytes32"
        }
      ],
      "name": "getPoolConfig",
      "outputs": [
        {
          "components": [
            {
              "internalType": "address",
              "name": "pool",
              "type": "address"
            },
            {
              "internalType": "address",
              "name": "baseToken",
              "type": "address"
            },
            {
              "internalType": "address",
              "name": "quoteToken",
              "type": "address"
            },
            {
              "internalType": "uint8",
              "name": "baseDecimals",
              "type": "uint8"
            },
            {
              "internalType": "uint8",
              "name": "quoteDecimals",
              "type": "uint8"
            },
            {
              "internalType": "uint32",
              "name": "twapPeriod",
              "type": "uint32"
            },
            {
              "internalType": "bool",
              "name": "isToken0Base",
              "type": "bool"
            }
          ],
          "internalType": "struct UniswapV3TWAPAdapter.PoolConfig",
          "name": "",
          "type": "tuple"
        }
      ],
      "stateMutability": "view",
      "type": "function"
    },
    {
      "inputs": [
        {
          "internalType": "bytes32",
          "name": "pairId",
          "type": "bytes32"
        }
      ],
      "name": "isPoolHealthy",
      "outputs": [
        {
          "internalType": "bool",
          "name": "",
          "type": "bool"
        }
      ],
      "stateMutability": "view",
      "type": "function"
    },
    {
      "inputs": [
        {
          "internalType": "bytes32",
          "name": "pairId",
          "type": "bytes32"
        }
      ],
      "name": "isPoolRegistered",
      "outputs": [
        {
          "internalType": "bool",
          "name": "",
          "type": "bool"
        }
      ],
      "stateMutability": "view",
      "type": "function"
    },
    {
      "inputs": [
        {
          "internalType": "bytes32",
          "name": "",
          "type": "bytes32"
        }
      ],
      "name": "pools",
      "outputs": [
        {
          "internalType": "address",
          "name": "pool",
          "type": "address"
        },
        {
          "internalType": "address",
          "name": "baseToken",
          "type": "address"
        },
        {
          "internalType": "address",
          "name": "quoteToken",
          "type": "address"
        },
        {
          "internalType": "uint8",
          "name": "baseDecimals",
          "type": "uint8"
        },
        {
          "internalType": "uint8",
          "name": "quoteDecimals",
          "type": "uint8"
        },
        {
          "internalType": "uint32",
          "name": "twapPeriod",
          "type": "uint32"
        },
        {
          "internalType": "bool",
          "name": "isToken0Base",
          "type": "bool"
        }
      ],
      "stateMutability": "view",
      "type": "function"
    }
  ],
  "transactionHash": "0x23a409f20f1d3344119ce59d9db2fde01fbef42a690a297d0f1bfb570f3aac91",
  "args": [],
  "numDeployments": 1,
  "solcInputHash": "20e66f7e65a4f172b8ebc2d9e2726c9d",
  "bytecode": "0x608060405234801561001057600080fd5b506040805160e081018252739799b5edc1aa7d3fad350309b08df3f64914e24480825273fff9976782d46cc05630d1f6ebab18b2324d6b146020808401918252731c7d4b196cb0c7b01d743fbc6116a902379c723884860190815260126060860190815260066080870190815261070860a08801818152600060c08a018181527f0b43555ace6b39aae1b894097d0a9fc17f504c62fea598fa206cc6f5088e6e4580835291885299517f05d85690a7c5141a43ee4adc4a1e5d6f3e58a86c5e9402ec0db989da3fec320380546001600160a01b03199081166001600160a01b039384161790915598517f05d85690a7c5141a43ee4adc4a1e5d6f3e58a86c5e9402ec0db989da3fec32048054909a169082161790985594517f05d85690a7c5141a43ee4adc4a1e5d6f3e58a86c5e9402ec0db989da3fec320580549551945192519a51919098166001600160a81b031990951694909417600160a01b60ff948516021764ffffffffff60a81b1916600160a81b939091169290920263ffffffff60b01b191691909117600160b01b63ffffffff909816979097029690961760ff60d01b1916600160d01b9115159190910217909255845192835282019290925290917f16f616fd27fd946b7a81b74eb3f1b343c650ae9b723c02ced6568412ed7a09e9910160405180910390a261136a8061020c6000396000f3fe608060405234801561001057600080fd5b50600436106100885760003560e01c8063ad5c46481161005b578063ad5c464814610259578063b2ee2f0114610274578063b5217bb41461029c578063f286101f1461035557600080fd5b8063037aadbe1461008d5780632b5a9118146101d857806389a30271146101fb5780639789ae801461022e575b600080fd5b61015d61009b366004610e98565b6040805160e081018252600080825260208201819052918101829052606081018290526080810182905260a0810182905260c08101919091525060009081526020818152604091829020825160e08101845281546001600160a01b03908116825260018301548116938201939093526002909101549182169281019290925260ff600160a01b820481166060840152600160a81b82048116608084015263ffffffff600160b01b83041660a0840152600160d01b90910416151560c082015290565b6040516101cf9190600060e08201905060018060a01b038084511683528060208501511660208401528060408501511660408401525060ff606084015116606083015260ff608084015116608083015263ffffffff60a08401511660a083015260c0830151151560c083015292915050565b60405180910390f35b6101eb6101e6366004610e98565b610370565b60405190151581526020016101cf565b610216731c7d4b196cb0c7b01d743fbc6116a902379c723881565b6040516001600160a01b0390911681526020016101cf565b6101eb61023c366004610e98565b6000908152602081905260409020546001600160a01b0316151590565b61021673fff9976782d46cc05630d1f6ebab18b2324d6b1481565b610287610282366004610e98565b610508565b604080519283526020830191909152016101cf565b6103066102aa366004610e98565b6000602081905290815260409020805460018201546002909201546001600160a01b039182169282169181169060ff600160a01b8204811691600160a81b810482169163ffffffff600160b01b83041691600160d01b90041687565b604080516001600160a01b0398891681529688166020880152949096169385019390935260ff918216606085015216608083015263ffffffff1660a082015290151560c082015260e0016101cf565b610216739799b5edc1aa7d3fad350309b08df3f64914e24481565b600081815260208181526040808320815160e08101835281546001600160a01b0390811680835260018401548216958301959095526002909201549182169281019290925260ff600160a01b820481166060840152600160a81b82048116608084015263ffffffff600160b01b83041660a0840152600160d01b90910416151560c0820152906104035750600092915050565b80516040805160028082526060820183526000926020830190803683370190505090508260a001518160008151811061043e5761043e610ec7565b602002602001019063ffffffff16908163ffffffff168152505060008160018151811061046d5761046d610ec7565b63ffffffff9092166020928302919091019091015260405163883bdbfd60e01b81526001600160a01b0383169063883bdbfd906104ae908490600401610edd565b600060405180830381865afa9250505080156104ec57506040513d6000823e601f3d908101601f191682016040526104e99190810190610ffd565b60015b6104fb57506000949350505050565b5060019695505050505050565b600081815260208181526040808320815160e08101835281546001600160a01b0390811680835260018401548216958301959095526002909201549182169281019290925260ff600160a01b820481166060840152600160a81b82048116608084015263ffffffff600160b01b83041660a0840152600160d01b90910416151560c082015282916105ec5760405162461bcd60e51b815260206004820152602360248201527f556e6973776170416461707465723a20506f6f6c206e6f7420636f6e666967756044820152621c995960ea1b60648201526084015b60405180910390fd5b805160a082015160009061060190839061069a565b90506000610624828560600151600a61061a91906111c5565b8660c00151610824565b905060006012856080015160ff1610156106645760808501516106489060126111d4565b61065390600a6111c5565b61065d90836111ed565b905061068d565b6012856080015161067591906111d4565b61068090600a6111c5565b61068a908361121a565b90505b9742975095505050505050565b6040805160028082526060820183526000928392919060208301908036833701905050905082816000815181106106d3576106d3610ec7565b602002602001019063ffffffff16908163ffffffff168152505060008160018151811061070257610702610ec7565b63ffffffff9092166020928302919091019091015260405163883bdbfd60e01b81526000906001600160a01b0386169063883bdbfd90610746908590600401610edd565b600060405180830381865afa158015610763573d6000803e3d6000fd5b505050506040513d6000823e601f3d908101601f1916820160405261078b9190810190610ffd565b5090506000816000815181106107a3576107a3610ec7565b6020026020010151826001815181106107be576107be610ec7565b60200260200101516107d0919061122e565b90506107e263ffffffff86168261125b565b935060008160060b128015610808575061080263ffffffff861682611299565b60060b15155b1561081b5783610817816112bb565b9450505b50505092915050565b60008061083085610909565b90506001600160801b036001600160a01b038216116108a257600061085e6001600160a01b038316806111ed565b9050836108825761087d600160c01b866001600160801b031683610d1d565b61089a565b61089a81866001600160801b0316600160c01b610d1d565b925050610901565b60006108c16001600160a01b0383168068010000000000000000610d1d565b9050836108e5576108e0600160801b866001600160801b031683610d1d565b6108fd565b6108fd81866001600160801b0316600160801b610d1d565b9250505b509392505050565b60008060008360020b12610920578260020b61092d565b8260020b61092d906112de565b9050627fffff8111156109665760405162461bcd60e51b81526020600482015260016024820152601560fa1b60448201526064016105e3565b60008160011660000361097d57600160801b61098f565b6ffffcb933bd6fad37aa2d162d1a5940015b70ffffffffffffffffffffffffffffffffff16905060028216156109ce5760806109c9826ffff97272373d413259a46990580e213a6111ed565b901c90505b60048216156109f85760806109f3826ffff2e50f5f656932ef12357cf3c7fdcc6111ed565b901c90505b6008821615610a22576080610a1d826fffe5caca7e10e4e61c3624eaa0941cd06111ed565b901c90505b6010821615610a4c576080610a47826fffcb9843d60f6159c9db58835c9266446111ed565b901c90505b6020821615610a76576080610a71826fff973b41fa98c081472e6896dfb254c06111ed565b901c90505b6040821615610aa0576080610a9b826fff2ea16466c96a3843ec78b326b528616111ed565b901c90505b6080821615610aca576080610ac5826ffe5dee046a99a2a811c461f1969c30536111ed565b901c90505b610100821615610af5576080610af0826ffcbe86c7900a88aedcffc83b479aa3a46111ed565b901c90505b610200821615610b20576080610b1b826ff987a7253ac413176f2b074cf7815e546111ed565b901c90505b610400821615610b4b576080610b46826ff3392b0822b70005940c7a398e4b70f36111ed565b901c90505b610800821615610b76576080610b71826fe7159475a2c29b7443b29c7fa6e889d96111ed565b901c90505b611000821615610ba1576080610b9c826fd097f3bdfd2022b8845ad8f792aa58256111ed565b901c90505b612000821615610bcc576080610bc7826fa9f746462d870fdf8a65dc1f90e061e56111ed565b901c90505b614000821615610bf7576080610bf2826f70d869a156d2a1b890bb3df62baf32f76111ed565b901c90505b618000821615610c22576080610c1d826f31be135f97d08fd981231505542fcfa66111ed565b901c90505b62010000821615610c4e576080610c49826f09aa508b5b7a84e1c677de54f3e99bc96111ed565b901c90505b62020000821615610c79576080610c74826e5d6af8dedb81196699c329225ee6046111ed565b901c90505b62040000821615610ca3576080610c9e826d2216e584f5fa1ea926041bedfe986111ed565b901c90505b62080000821615610ccb576080610cc6826b048a170391f7dc42444e8fa26111ed565b901c90505b60008460020b1315610ce657610ce38160001961121a565b90505b610cf5640100000000826112fa565b15610d01576001610d04565b60005b610d159060ff16602083901c61130e565b949350505050565b6000808060001985870985870292508281108382030391505080600003610d565760008411610d4b57600080fd5b508290049050610e91565b808411610d6257600080fd5b6000848688098084039381119092039190506000610d828619600161130e565b8616958690049593849004936000819003046001019050610da381846111ed565b909317926000610db48760036111ed565b6002189050610dc381886111ed565b610dce906002611321565b610dd890826111ed565b9050610de481886111ed565b610def906002611321565b610df990826111ed565b9050610e0581886111ed565b610e10906002611321565b610e1a90826111ed565b9050610e2681886111ed565b610e31906002611321565b610e3b90826111ed565b9050610e4781886111ed565b610e52906002611321565b610e5c90826111ed565b9050610e6881886111ed565b610e73906002611321565b610e7d90826111ed565b9050610e8981866111ed565b955050505050505b9392505050565b600060208284031215610eaa57600080fd5b5035919050565b634e487b7160e01b600052604160045260246000fd5b634e487b7160e01b600052603260045260246000fd5b6020808252825182820181905260009190848201906040850190845b81811015610f1b57835163ffffffff1683529284019291840191600101610ef9565b50909695505050505050565b604051601f8201601f1916810167ffffffffffffffff81118282101715610f5057610f50610eb1565b604052919050565b600067ffffffffffffffff821115610f7257610f72610eb1565b5060051b60200190565b600082601f830112610f8d57600080fd5b81516020610fa2610f9d83610f58565b610f27565b82815260059290921b84018101918181019086841115610fc157600080fd5b8286015b84811015610ff25780516001600160a01b0381168114610fe55760008081fd5b8352918301918301610fc5565b509695505050505050565b6000806040838503121561101057600080fd5b825167ffffffffffffffff8082111561102857600080fd5b818501915085601f83011261103c57600080fd5b8151602061104c610f9d83610f58565b82815260059290921b8401810191818101908984111561106b57600080fd5b948201945b838610156110995785518060060b811461108a5760008081fd5b82529482019490820190611070565b918801519196509093505050808211156110b257600080fd5b506110bf85828601610f7c565b9150509250929050565b634e487b7160e01b600052601160045260246000fd5b600181815b8085111561111a578160001904821115611100576111006110c9565b8085161561110d57918102915b93841c93908002906110e4565b509250929050565b600082611131575060016111bf565b8161113e575060006111bf565b8160018114611154576002811461115e5761117a565b60019150506111bf565b60ff84111561116f5761116f6110c9565b50506001821b6111bf565b5060208310610133831016604e8410600b841016171561119d575081810a6111bf565b6111a783836110df565b80600019048211156111bb576111bb6110c9565b0290505b92915050565b6000610e9160ff841683611122565b60ff82811682821603908111156111bf576111bf6110c9565b80820281158282048414176111bf576111bf6110c9565b634e487b7160e01b600052601260045260246000fd5b60008261122957611229611204565b500490565b600682810b9082900b03667fffffffffffff198112667fffffffffffff821317156111bf576111bf6110c9565b60008160060b8360060b8061127257611272611204565b667fffffffffffff19821460001982141615611290576112906110c9565b90059392505050565b60008260060b806112ac576112ac611204565b808360060b0791505092915050565b60008160020b627fffff1981036112d4576112d46110c9565b6000190192915050565b6000600160ff1b82016112f3576112f36110c9565b5060000390565b60008261130957611309611204565b500690565b808201808211156111bf576111bf6110c9565b818103818111156111bf576111bf6110c956fea264697066735822122040b90dd381eec530ae97b13af84243504cb153bf86d74d784d3d980829ab805d64736f6c63430008140033",
  "devdoc": {
    "details": "Provides on-chain price oracle resistant to flash loan manipulationPool addresses from https://www.geckoterminal.com/sepolia-testnet",
    "kind": "dev",
    "methods": {
      "getLatestPrice(bytes32)": {
        "params": {
          "pairId": "Asset pair identifier (e.g., keccak256(\"ETH/USD\"))"
        },
        "returns": {
          "price": "TWAP price (normalized to 18 decimals)",
          "timestamp": "Current block timestamp (TWAP is current)"
        }
      },
      "getPoolConfig(bytes32)": {
        "params": {
          "pairId": "Asset pair to query"
        },
        "returns": {
          "_0": "config Pool configuration struct"
        }
      },
      "isPoolHealthy(bytes32)": {
        "details": "Verifies pool has observations covering the TWAP period",
        "params": {
          "pairId": "Asset pair to check"
        },
        "returns": {
          "_0": "True if pool is healthy and has sufficient data"
        }
      },
      "isPoolRegistered(bytes32)": {
        "params": {
          "pairId": "Asset pair to check"
        },
        "returns": {
          "_0": "True if pool registered"
        }
      }
    },
    "title": "UniswapV3TWAPAdapter",
    "version": 1
  },
  "userdoc": {
    "kind": "user",
    "methods": {
      "getLatestPrice(bytes32)": {
        "notice": "Get time-weighted average price from Uniswap V3"
      },
      "getPoolConfig(bytes32)": {
        "notice": "Get pool configuration"
      },
      "isPoolHealthy(bytes32)": {
        "notice": "Check if pool has sufficient history for TWAP"
      },
      "isPoolRegistered(bytes32)": {
        "notice": "Check if pool is registered"
      }
    },
    "notice": "Fetches time-weighted average price from Uniswap V3 pools",
    "version": 1
  },
  "storageLayout": {
    "storage": [
      {
        "astId": 11897,
        "contract": "contracts/oracles/UniswapV3TWAPAdapter.sol:UniswapV3TWAPAdapter",
        "label": "pools",
        "offset": 0,
        "slot": "0",
        "type": "t_mapping(t_bytes32,t_struct(PoolConfig)11892_storage)"
      }
    ],
    "types": {
      "t_address": {
        "encoding": "inplace",
        "label": "address",
        "numberOfBytes": "20"
      },
      "t_bool": {
        "encoding": "inplace",
        "label": "bool",
        "numberOfBytes": "1"
      },
      "t_bytes32": {
        "encoding": "inplace",
        "label": "bytes32",
        "numberOfBytes": "32"
      },
      "t_mapping(t_bytes32,t_struct(PoolConfig)11892_storage)": {
        "encoding": "mapping",
        "key": "t_bytes32",
        "label": "mapping(bytes32 => struct UniswapV3TWAPAdapter.PoolConfig)",
        "numberOfBytes": "32",
        "value": "t_struct(PoolConfig)11892_storage"
      },
      "t_struct(PoolConfig)11892_storage": {
        "encoding": "inplace",
        "label": "struct UniswapV3TWAPAdapter.PoolConfig",
        "members": [
          {
            "astId": 11879,
            "contract": "contracts/oracles/UniswapV3TWAPAdapter.sol:UniswapV3TWAPAdapter",
            "label": "pool",
            "offset": 0,
            "slot": "0",
            "type": "t_address"
          },
          {
            "astId": 11881,
            "contract": "contracts/oracles/UniswapV3TWAPAdapter.sol:UniswapV3TWAPAdapter",
            "label": "baseToken",
            "offset": 0,
            "slot": "1",
            "type": "t_address"
          },
          {
            "astId": 11883,
            "contract": "contracts/oracles/UniswapV3TWAPAdapter.sol:UniswapV3TWAPAdapter",
            "label": "quoteToken",
            "offset": 0,
            "slot": "2",
            "type": "t_address"
          },
          {
            "astId": 11885,
            "contract": "contracts/oracles/UniswapV3TWAPAdapter.sol:UniswapV3TWAPAdapter",
            "label": "baseDecimals",
            "offset": 20,
            "slot": "2",
            "type": "t_uint8"
          },
          {
            "astId": 11887,
            "contract": "contracts/oracles/UniswapV3TWAPAdapter.sol:UniswapV3TWAPAdapter",
            "label": "quoteDecimals",
            "offset": 21,
            "slot": "2",
            "type": "t_uint8"
          },
          {
            "astId": 11889,
            "contract": "contracts/oracles/UniswapV3TWAPAdapter.sol:UniswapV3TWAPAdapter",
            "label": "twapPeriod",
            "offset": 22,
            "slot": "2",
            "type": "t_uint32"
          },
          {
            "astId": 11891,
            "contract": "contracts/oracles/UniswapV3TWAPAdapter.sol:UniswapV3TWAPAdapter",
            "label": "isToken0Base",
            "offset": 26,
            "slot": "2",
            "type": "t_bool"
          }
        ],
        "numberOfBytes": "96"
      },
      "t_uint32": {
        "encoding": "inplace",
        "label": "uint32",
        "numberOfBytes": "4"
      },
      "t_uint8": {
        "encoding": "inplace",
        "label": "uint8",
        "numberOfBytes": "1"
      }
    }
  }
}